{
  "contractName": "Scale",
  "abi": [
    {
      "constant": true,
      "inputs": [],
      "name": "stakingMintAmount",
      "outputs": [
        {
          "name": "",
          "type": "uint256"
        }
      ],
      "payable": false,
      "stateMutability": "view",
      "type": "function"
    },
    {
      "constant": true,
      "inputs": [],
      "name": "name",
      "outputs": [
        {
          "name": "",
          "type": "string"
        }
      ],
      "payable": false,
      "stateMutability": "view",
      "type": "function"
    },
    {
      "constant": false,
      "inputs": [
        {
          "name": "_spender",
          "type": "address"
        },
        {
          "name": "_value",
          "type": "uint256"
        }
      ],
      "name": "approve",
      "outputs": [
        {
          "name": "",
          "type": "bool"
        }
      ],
      "payable": false,
      "stateMutability": "nonpayable",
      "type": "function"
    },
    {
      "constant": true,
      "inputs": [],
      "name": "pool",
      "outputs": [
        {
          "name": "",
          "type": "address"
        }
      ],
      "payable": false,
      "stateMutability": "view",
      "type": "function"
    },
    {
      "constant": true,
      "inputs": [],
      "name": "totalSupply",
      "outputs": [
        {
          "name": "",
          "type": "uint256"
        }
      ],
      "payable": false,
      "stateMutability": "view",
      "type": "function"
    },
    {
      "constant": false,
      "inputs": [
        {
          "name": "_from",
          "type": "address"
        },
        {
          "name": "_to",
          "type": "address"
        },
        {
          "name": "_value",
          "type": "uint256"
        }
      ],
      "name": "transferFrom",
      "outputs": [
        {
          "name": "",
          "type": "bool"
        }
      ],
      "payable": false,
      "stateMutability": "nonpayable",
      "type": "function"
    },
    {
      "constant": true,
      "inputs": [],
      "name": "decimals",
      "outputs": [
        {
          "name": "",
          "type": "uint8"
        }
      ],
      "payable": false,
      "stateMutability": "view",
      "type": "function"
    },
    {
      "constant": true,
      "inputs": [
        {
          "name": "",
          "type": "address"
        }
      ],
      "name": "stakeBalances",
      "outputs": [
        {
          "name": "stakeBalance",
          "type": "uint256"
        },
        {
          "name": "initialStakeTime",
          "type": "uint256"
        }
      ],
      "payable": false,
      "stateMutability": "view",
      "type": "function"
    },
    {
      "constant": true,
      "inputs": [],
      "name": "poolPercentage",
      "outputs": [
        {
          "name": "",
          "type": "uint256"
        }
      ],
      "payable": false,
      "stateMutability": "view",
      "type": "function"
    },
    {
      "constant": true,
      "inputs": [],
      "name": "ownerPercentage",
      "outputs": [
        {
          "name": "",
          "type": "uint256"
        }
      ],
      "payable": false,
      "stateMutability": "view",
      "type": "function"
    },
    {
      "constant": true,
      "inputs": [],
      "name": "poolTimeLastMinted",
      "outputs": [
        {
          "name": "",
          "type": "uint256"
        }
      ],
      "payable": false,
      "stateMutability": "view",
      "type": "function"
    },
    {
      "constant": true,
      "inputs": [],
      "name": "stakingMintRate",
      "outputs": [
        {
          "name": "",
          "type": "uint256"
        }
      ],
      "payable": false,
      "stateMutability": "view",
      "type": "function"
    },
    {
      "constant": false,
      "inputs": [
        {
          "name": "_spender",
          "type": "address"
        },
        {
          "name": "_subtractedValue",
          "type": "uint256"
        }
      ],
      "name": "decreaseApproval",
      "outputs": [
        {
          "name": "",
          "type": "bool"
        }
      ],
      "payable": false,
      "stateMutability": "nonpayable",
      "type": "function"
    },
    {
      "constant": true,
      "inputs": [],
      "name": "lastInflationUpdate",
      "outputs": [
        {
          "name": "",
          "type": "uint256"
        }
      ],
      "payable": false,
      "stateMutability": "view",
      "type": "function"
    },
    {
      "constant": true,
      "inputs": [
        {
          "name": "_owner",
          "type": "address"
        }
      ],
      "name": "balanceOf",
      "outputs": [
        {
          "name": "balance",
          "type": "uint256"
        }
      ],
      "payable": false,
      "stateMutability": "view",
      "type": "function"
    },
    {
      "constant": true,
      "inputs": [],
      "name": "poolMintAmount",
      "outputs": [
        {
          "name": "",
          "type": "uint256"
        }
      ],
      "payable": false,
      "stateMutability": "view",
      "type": "function"
    },
    {
      "constant": true,
      "inputs": [],
      "name": "stakingPercentage",
      "outputs": [
        {
          "name": "",
          "type": "uint256"
        }
      ],
      "payable": false,
      "stateMutability": "view",
      "type": "function"
    },
    {
      "constant": true,
      "inputs": [],
      "name": "owner",
      "outputs": [
        {
          "name": "",
          "type": "address"
        }
      ],
      "payable": false,
      "stateMutability": "view",
      "type": "function"
    },
    {
      "constant": true,
      "inputs": [],
      "name": "poolMintRate",
      "outputs": [
        {
          "name": "",
          "type": "uint256"
        }
      ],
      "payable": false,
      "stateMutability": "view",
      "type": "function"
    },
    {
      "constant": true,
      "inputs": [],
      "name": "symbol",
      "outputs": [
        {
          "name": "",
          "type": "string"
        }
      ],
      "payable": false,
      "stateMutability": "view",
      "type": "function"
    },
    {
      "constant": false,
      "inputs": [],
      "name": "reclaimEther",
      "outputs": [],
      "payable": false,
      "stateMutability": "nonpayable",
      "type": "function"
    },
    {
      "constant": true,
      "inputs": [],
      "name": "ownerMintRate",
      "outputs": [
        {
          "name": "",
          "type": "uint256"
        }
      ],
      "payable": false,
      "stateMutability": "view",
      "type": "function"
    },
    {
      "constant": false,
      "inputs": [
        {
          "name": "_to",
          "type": "address"
        },
        {
          "name": "_value",
          "type": "uint256"
        }
      ],
      "name": "transfer",
      "outputs": [
        {
          "name": "",
          "type": "bool"
        }
      ],
      "payable": false,
      "stateMutability": "nonpayable",
      "type": "function"
    },
    {
      "constant": true,
      "inputs": [],
      "name": "ownerTimeLastMinted",
      "outputs": [
        {
          "name": "",
          "type": "uint256"
        }
      ],
      "payable": false,
      "stateMutability": "view",
      "type": "function"
    },
    {
      "constant": true,
      "inputs": [],
      "name": "ownerMintAmount",
      "outputs": [
        {
          "name": "",
          "type": "uint256"
        }
      ],
      "payable": false,
      "stateMutability": "view",
      "type": "function"
    },
    {
      "constant": false,
      "inputs": [
        {
          "name": "_spender",
          "type": "address"
        },
        {
          "name": "_addedValue",
          "type": "uint256"
        }
      ],
      "name": "increaseApproval",
      "outputs": [
        {
          "name": "",
          "type": "bool"
        }
      ],
      "payable": false,
      "stateMutability": "nonpayable",
      "type": "function"
    },
    {
      "constant": true,
      "inputs": [
        {
          "name": "_owner",
          "type": "address"
        },
        {
          "name": "_spender",
          "type": "address"
        }
      ],
      "name": "allowance",
      "outputs": [
        {
          "name": "",
          "type": "uint256"
        }
      ],
      "payable": false,
      "stateMutability": "view",
      "type": "function"
    },
    {
      "constant": true,
      "inputs": [],
      "name": "totalScaleStaked",
      "outputs": [
        {
          "name": "",
          "type": "uint256"
        }
      ],
      "payable": false,
      "stateMutability": "view",
      "type": "function"
    },
    {
      "constant": false,
      "inputs": [
        {
          "name": "newOwner",
          "type": "address"
        }
      ],
      "name": "transferOwnership",
      "outputs": [],
      "payable": false,
      "stateMutability": "nonpayable",
      "type": "function"
    },
    {
      "inputs": [],
      "payable": false,
      "stateMutability": "nonpayable",
      "type": "constructor"
    },
    {
      "payable": false,
      "stateMutability": "nonpayable",
      "type": "fallback"
    },
    {
      "anonymous": false,
      "inputs": [
        {
          "indexed": true,
          "name": "staker",
          "type": "address"
        },
        {
          "indexed": false,
          "name": "value",
          "type": "uint256"
        }
      ],
      "name": "Stake",
      "type": "event"
    },
    {
      "anonymous": false,
      "inputs": [
        {
          "indexed": true,
          "name": "unstaker",
          "type": "address"
        },
        {
          "indexed": false,
          "name": "stakedAmount",
          "type": "uint256"
        },
        {
          "indexed": false,
          "name": "stakingGains",
          "type": "uint256"
        }
      ],
      "name": "Unstake",
      "type": "event"
    },
    {
      "anonymous": false,
      "inputs": [
        {
          "indexed": true,
          "name": "to",
          "type": "address"
        },
        {
          "indexed": false,
          "name": "amount",
          "type": "uint256"
        }
      ],
      "name": "Mint",
      "type": "event"
    },
    {
      "anonymous": false,
      "inputs": [
        {
          "indexed": true,
          "name": "previousOwner",
          "type": "address"
        },
        {
          "indexed": true,
          "name": "newOwner",
          "type": "address"
        }
      ],
      "name": "OwnershipTransferred",
      "type": "event"
    },
    {
      "anonymous": false,
      "inputs": [
        {
          "indexed": true,
          "name": "owner",
          "type": "address"
        },
        {
          "indexed": true,
          "name": "spender",
          "type": "address"
        },
        {
          "indexed": false,
          "name": "value",
          "type": "uint256"
        }
      ],
      "name": "Approval",
      "type": "event"
    },
    {
      "anonymous": false,
      "inputs": [
        {
          "indexed": true,
          "name": "from",
          "type": "address"
        },
        {
          "indexed": true,
          "name": "to",
          "type": "address"
        },
        {
          "indexed": false,
          "name": "value",
          "type": "uint256"
        }
      ],
      "name": "Transfer",
      "type": "event"
    },
    {
      "constant": false,
      "inputs": [],
      "name": "updateInflationRate",
      "outputs": [],
      "payable": false,
      "stateMutability": "nonpayable",
      "type": "function"
    },
    {
      "constant": false,
      "inputs": [
        {
          "name": "_stakeAmount",
          "type": "uint256"
        }
      ],
      "name": "stakeScale",
      "outputs": [],
      "payable": false,
      "stateMutability": "nonpayable",
      "type": "function"
    },
    {
      "constant": false,
      "inputs": [
        {
          "name": "_user",
          "type": "address"
        },
        {
          "name": "_stakeAmount",
          "type": "uint256"
        }
      ],
      "name": "stakeFor",
      "outputs": [],
      "payable": false,
      "stateMutability": "nonpayable",
      "type": "function"
    },
    {
      "constant": true,
      "inputs": [
        {
          "name": "_now",
          "type": "uint256"
        }
      ],
      "name": "getStakingGains",
      "outputs": [
        {
          "name": "",
          "type": "uint256"
        }
      ],
      "payable": false,
      "stateMutability": "view",
      "type": "function"
    },
    {
      "constant": false,
      "inputs": [],
      "name": "unstake",
      "outputs": [
        {
          "name": "",
          "type": "bool"
        }
      ],
      "payable": false,
      "stateMutability": "nonpayable",
      "type": "function"
    },
    {
      "constant": true,
      "inputs": [],
      "name": "getStakedBalance",
      "outputs": [
        {
          "name": "stakedBalance",
          "type": "uint256"
        }
      ],
      "payable": false,
      "stateMutability": "view",
      "type": "function"
    },
    {
      "constant": false,
      "inputs": [],
      "name": "ownerClaim",
      "outputs": [],
      "payable": false,
      "stateMutability": "nonpayable",
      "type": "function"
    },
    {
      "constant": false,
      "inputs": [],
      "name": "poolIssue",
      "outputs": [],
      "payable": false,
      "stateMutability": "nonpayable",
      "type": "function"
    },
    {
      "constant": false,
      "inputs": [
        {
          "name": "_newAddress",
          "type": "address"
        }
      ],
      "name": "setPool",
      "outputs": [],
      "payable": false,
      "stateMutability": "nonpayable",
      "type": "function"
    }
  ],
  "bytecode": "0x60806040526000600460006101000a81548173ffffffffffffffffffffffffffffffffffffffff021916908373ffffffffffffffffffffffffffffffffffffffff1602179055506046600a556005600b556019600c55620151806012556103e86014553480156200006f57600080fd5b50600080600033600360006101000a81548173ffffffffffffffffffffffffffffffffffffffff021916908373ffffffffffffffffffffffffffffffffffffffff160217905550600034141515620000c657600080fd5b33600360006101000a81548173ffffffffffffffffffffffffffffffffffffffff021916908373ffffffffffffffffffffffffffffffffffffffff1602179055506a084595161401484a0000009250620001303384620002cd640100000000026401000000009004565b91508115156200013f57600080fd5b42600d8190555042600e8190555062000195606462000178600a54866200045d6401000000000262002b4c179091906401000000009004565b6200049964010000000002620024fc179091906401000000009004565b600781905550620001e36064620001c6600b54866200045d6401000000000262002b4c179091906401000000009004565b6200049964010000000002620024fc179091906401000000009004565b60098190555062000231606462000214600c54866200045d6401000000000262002b4c179091906401000000009004565b6200049964010000000002620024fc179091906401000000009004565b6008819055506a1a1601fc4ea7109e00000090506200026760075482601260ff16620004b0640100000000026401000000009004565b6005819055506200028f60095482601260ff16620004b0640100000000026401000000009004565b600681905550620002b760085482601260ff16620004b0640100000000026401000000009004565b600f81905550426015819055505050506200053b565b6000620002f4826000546200051e64010000000002620024e0179091906401000000009004565b6000819055506200035c82600160008673ffffffffffffffffffffffffffffffffffffffff1673ffffffffffffffffffffffffffffffffffffffff168152602001908152602001600020546200051e64010000000002620024e0179091906401000000009004565b600160008573ffffffffffffffffffffffffffffffffffffffff1673ffffffffffffffffffffffffffffffffffffffff168152602001908152602001600020819055508273ffffffffffffffffffffffffffffffffffffffff167f0f6798a560793a54c3bcfe86a93cde1e73087d944c0ea20544137d4121396885836040518082815260200191505060405180910390a28273ffffffffffffffffffffffffffffffffffffffff16600073ffffffffffffffffffffffffffffffffffffffff167fddf252ad1be2c89b69c2b068fc378daa952ba7f163c4a11628f55a4df523b3ef846040518082815260200191505060405180910390a36001905092915050565b60008083141562000472576000905062000493565b81830290508183828115156200048457fe5b041415156200048f57fe5b8090505b92915050565b60008183811515620004a757fe5b04905092915050565b600080620004dc60018401600a0a866200045d6401000000000262002b4c179091906401000000009004565b9450600a60056200050586886200049964010000000002620024fc179091906401000000009004565b018115156200051057fe5b049050809150509392505050565b600081830190508281101515156200053257fe5b80905092915050565b612bb0806200054b6000396000f3006080604052600436106101d8576000357c0100000000000000000000000000000000000000000000000000000000900463ffffffff16806304e78a30146101e757806306fdde0314610212578063095ea7b3146102a257806316f0115b1461030757806318160ddd1461035e5780631d60993b1461038957806323b872dd146103b65780632def66201461043b5780632ee409081461046a578063313ce567146104b75780633b317dab146104e85780633e7e30ba1461054657806341da7555146105715780634437152a1461059c5780634dbe5889146105df578063531e4827146105f657806361c083b914610621578063628a01ce14610638578063661884631461066357806366e1cebd146106c85780636b178f47146107095780636b4e8bb01461072057806370a082311461074b57806376965867146107a25780637e575524146107cd57806381e1ccba146107f85780638da5cb5b1461082357806390cad5371461087a57806395d89b41146108a55780639f727c2714610935578063a0d8b4e91461094c578063a9059cbb14610977578063ac185644146109dc578063bb00c8f914610a07578063d73dd62314610a32578063dd62ed3e14610a97578063f162c5a114610b0e578063f2fde38b14610b39575b3480156101e457600080fd5b50005b3480156101f357600080fd5b506101fc610b7c565b6040518082815260200191505060405180910390f35b34801561021e57600080fd5b50610227610b82565b6040518080602001828103825283818151815260200191508051906020019080838360005b8381101561026757808201518184015260208101905061024c565b50505050905090810190601f1680156102945780820380516001836020036101000a031916815260200191505b509250505060405180910390f35b3480156102ae57600080fd5b506102ed600480360381019080803573ffffffffffffffffffffffffffffffffffffffff16906020019092919080359060200190929190505050610bbb565b604051808215151515815260200191505060405180910390f35b34801561031357600080fd5b5061031c610cad565b604051808273ffffffffffffffffffffffffffffffffffffffff1673ffffffffffffffffffffffffffffffffffffffff16815260200191505060405180910390f35b34801561036a57600080fd5b50610373610cd3565b6040518082815260200191505060405180910390f35b34801561039557600080fd5b506103b460048036038101908080359060200190929190505050610cd9565b005b3480156103c257600080fd5b50610421600480360381019080803573ffffffffffffffffffffffffffffffffffffffff169060200190929190803573ffffffffffffffffffffffffffffffffffffffff16906020019092919080359060200190929190505050610cf1565b604051808215151515815260200191505060405180910390f35b34801561044757600080fd5b506104506110b0565b604051808215151515815260200191505060405180910390f35b34801561047657600080fd5b506104b5600480360381019080803573ffffffffffffffffffffffffffffffffffffffff169060200190929190803590602001909291905050506113fe565b005b3480156104c357600080fd5b506104cc611469565b604051808260ff1660ff16815260200191505060405180910390f35b3480156104f457600080fd5b50610529600480360381019080803573ffffffffffffffffffffffffffffffffffffffff16906020019092919050505061146e565b604051808381526020018281526020019250505060405180910390f35b34801561055257600080fd5b5061055b611492565b6040518082815260200191505060405180910390f35b34801561057d57600080fd5b50610586611498565b6040518082815260200191505060405180910390f35b3480156105a857600080fd5b506105dd600480360381019080803573ffffffffffffffffffffffffffffffffffffffff16906020019092919050505061149e565b005b3480156105eb57600080fd5b506105f461153e565b005b34801561060257600080fd5b5061060b611604565b6040518082815260200191505060405180910390f35b34801561062d57600080fd5b5061063661160a565b005b34801561064457600080fd5b5061064d61163b565b6040518082815260200191505060405180910390f35b34801561066f57600080fd5b506106ae600480360381019080803573ffffffffffffffffffffffffffffffffffffffff16906020019092919080359060200190929190505050611641565b604051808215151515815260200191505060405180910390f35b3480156106d457600080fd5b506106f3600480360381019080803590602001909291905050506118d2565b6040518082815260200191505060405180910390f35b34801561071557600080fd5b5061071e611938565b005b34801561072c57600080fd5b50610735611a7f565b6040518082815260200191505060405180910390f35b34801561075757600080fd5b5061078c600480360381019080803573ffffffffffffffffffffffffffffffffffffffff169060200190929190505050611a85565b6040518082815260200191505060405180910390f35b3480156107ae57600080fd5b506107b7611ace565b6040518082815260200191505060405180910390f35b3480156107d957600080fd5b506107e2611b18565b6040518082815260200191505060405180910390f35b34801561080457600080fd5b5061080d611b1e565b6040518082815260200191505060405180910390f35b34801561082f57600080fd5b50610838611b24565b604051808273ffffffffffffffffffffffffffffffffffffffff1673ffffffffffffffffffffffffffffffffffffffff16815260200191505060405180910390f35b34801561088657600080fd5b5061088f611b4a565b6040518082815260200191505060405180910390f35b3480156108b157600080fd5b506108ba611b50565b6040518080602001828103825283818151815260200191508051906020019080838360005b838110156108fa5780820151818401526020810190506108df565b50505050905090810190601f1680156109275780820380516001836020036101000a031916815260200191505b509250505060405180910390f35b34801561094157600080fd5b5061094a611b89565b005b34801561095857600080fd5b50610961611c5d565b6040518082815260200191505060405180910390f35b34801561098357600080fd5b506109c2600480360381019080803573ffffffffffffffffffffffffffffffffffffffff16906020019092919080359060200190929190505050611c63565b604051808215151515815260200191505060405180910390f35b3480156109e857600080fd5b506109f1611e87565b6040518082815260200191505060405180910390f35b348015610a1357600080fd5b50610a1c611e8d565b6040518082815260200191505060405180910390f35b348015610a3e57600080fd5b50610a7d600480360381019080803573ffffffffffffffffffffffffffffffffffffffff16906020019092919080359060200190929190505050611e93565b604051808215151515815260200191505060405180910390f35b348015610aa357600080fd5b50610af8600480360381019080803573ffffffffffffffffffffffffffffffffffffffff169060200190929190803573ffffffffffffffffffffffffffffffffffffffff16906020019092919050505061208f565b6040518082815260200191505060405180910390f35b348015610b1a57600080fd5b50610b23612116565b6040518082815260200191505060405180910390f35b348015610b4557600080fd5b50610b7a600480360381019080803573ffffffffffffffffffffffffffffffffffffffff16906020019092919050505061211c565b005b60085481565b6040805190810160405280600581526020017f5343414c4500000000000000000000000000000000000000000000000000000081525081565b600081600260003373ffffffffffffffffffffffffffffffffffffffff1673ffffffffffffffffffffffffffffffffffffffff16815260200190815260200160002060008573ffffffffffffffffffffffffffffffffffffffff1673ffffffffffffffffffffffffffffffffffffffff168152602001908152602001600020819055508273ffffffffffffffffffffffffffffffffffffffff163373ffffffffffffffffffffffffffffffffffffffff167f8c5be1e5ebec7d5bd14f71427d1e84f3dd0314c0f7b2291e5b200ac8c7c3b925846040518082815260200191505060405180910390a36001905092915050565b600460009054906101000a900473ffffffffffffffffffffffffffffffffffffffff1681565b60005481565b610ce33382612274565b1515610cee57600080fd5b50565b60008073ffffffffffffffffffffffffffffffffffffffff168373ffffffffffffffffffffffffffffffffffffffff1614151515610d2e57600080fd5b600160008573ffffffffffffffffffffffffffffffffffffffff1673ffffffffffffffffffffffffffffffffffffffff168152602001908152602001600020548211151515610d7c57600080fd5b600260008573ffffffffffffffffffffffffffffffffffffffff1673ffffffffffffffffffffffffffffffffffffffff16815260200190815260200160002060003373ffffffffffffffffffffffffffffffffffffffff1673ffffffffffffffffffffffffffffffffffffffff168152602001908152602001600020548211151515610e0757600080fd5b610e5982600160008773ffffffffffffffffffffffffffffffffffffffff1673ffffffffffffffffffffffffffffffffffffffff168152602001908152602001600020546124c790919063ffffffff16565b600160008673ffffffffffffffffffffffffffffffffffffffff1673ffffffffffffffffffffffffffffffffffffffff16815260200190815260200160002081905550610eee82600160008673ffffffffffffffffffffffffffffffffffffffff1673ffffffffffffffffffffffffffffffffffffffff168152602001908152602001600020546124e090919063ffffffff16565b600160008573ffffffffffffffffffffffffffffffffffffffff1673ffffffffffffffffffffffffffffffffffffffff16815260200190815260200160002081905550610fc082600260008773ffffffffffffffffffffffffffffffffffffffff1673ffffffffffffffffffffffffffffffffffffffff16815260200190815260200160002060003373ffffffffffffffffffffffffffffffffffffffff1673ffffffffffffffffffffffffffffffffffffffff168152602001908152602001600020546124c790919063ffffffff16565b600260008673ffffffffffffffffffffffffffffffffffffffff1673ffffffffffffffffffffffffffffffffffffffff16815260200190815260200160002060003373ffffffffffffffffffffffffffffffffffffffff1673ffffffffffffffffffffffffffffffffffffffff168152602001908152602001600020819055508273ffffffffffffffffffffffffffffffffffffffff168473ffffffffffffffffffffffffffffffffffffffff167fddf252ad1be2c89b69c2b068fc378daa952ba7f163c4a11628f55a4df523b3ef846040518082815260200191505060405180910390a3600190509392505050565b6000806000601360003373ffffffffffffffffffffffffffffffffffffffff1673ffffffffffffffffffffffffffffffffffffffff1681526020019081526020016000206000015411151561110457600080fd5b600761116f601360003373ffffffffffffffffffffffffffffffffffffffff1673ffffffffffffffffffffffffffffffffffffffff16815260200190815260200160002060010154611161601254426124fc90919063ffffffff16565b6124c790919063ffffffff16565b1015151561117c57600080fd5b61118542612512565b905061121b601360003373ffffffffffffffffffffffffffffffffffffffff1673ffffffffffffffffffffffffffffffffffffffff16815260200190815260200160002060000154600160003373ffffffffffffffffffffffffffffffffffffffff1673ffffffffffffffffffffffffffffffffffffffff168152602001908152602001600020546124e090919063ffffffff16565b600160003373ffffffffffffffffffffffffffffffffffffffff1673ffffffffffffffffffffffffffffffffffffffff168152602001908152602001600020819055506112b5601360003373ffffffffffffffffffffffffffffffffffffffff1673ffffffffffffffffffffffffffffffffffffffff168152602001908152602001600020600001546010546124c790919063ffffffff16565b6010819055506112c5338261276f565b503373ffffffffffffffffffffffffffffffffffffffff167ff960dbf9e5d0682f7a298ed974e33a28b4464914b7a2bfac12ae419a9afeb280601360003373ffffffffffffffffffffffffffffffffffffffff1673ffffffffffffffffffffffffffffffffffffffff1681526020019081526020016000206000015483604051808381526020018281526020019250505060405180910390a26000601360003373ffffffffffffffffffffffffffffffffffffffff1673ffffffffffffffffffffffffffffffffffffffff168152602001908152602001600020600001819055506000601360003373ffffffffffffffffffffffffffffffffffffffff1673ffffffffffffffffffffffffffffffffffffffff168152602001908152602001600020600101819055506113f66128df565b600191505090565b6000601360008473ffffffffffffffffffffffffffffffffffffffff1673ffffffffffffffffffffffffffffffffffffffff1681526020019081526020016000206000015414151561144f57600080fd5b6114598282611c63565b506114648282612274565b505050565b601281565b60136020528060005260406000206000915090508060000154908060010154905082565b600a5481565b600b5481565b600360009054906101000a900473ffffffffffffffffffffffffffffffffffffffff1673ffffffffffffffffffffffffffffffffffffffff163373ffffffffffffffffffffffffffffffffffffffff161415156114fa57600080fd5b80600460006101000a81548173ffffffffffffffffffffffffffffffffffffffff021916908373ffffffffffffffffffffffffffffffffffffffff16021790555050565b6000806000600360009054906101000a900473ffffffffffffffffffffffffffffffffffffffff1673ffffffffffffffffffffffffffffffffffffffff163373ffffffffffffffffffffffffffffffffffffffff1614151561159f57600080fd5b600d54421115156115af57600080fd5b6115c4600d54426124c790919063ffffffff16565b92506000831115156115d257fe5b6115de83600654612915565b91506115ea338361276f565b90508015156115f857600080fd5b42600d81905550505050565b600e5481565b6301e13380611624601554426124c790919063ffffffff16565b1015151561163157600080fd5b611639612932565b565b600f5481565b600080600260003373ffffffffffffffffffffffffffffffffffffffff1673ffffffffffffffffffffffffffffffffffffffff16815260200190815260200160002060008573ffffffffffffffffffffffffffffffffffffffff1673ffffffffffffffffffffffffffffffffffffffff16815260200190815260200160002054905080831115611752576000600260003373ffffffffffffffffffffffffffffffffffffffff1673ffffffffffffffffffffffffffffffffffffffff16815260200190815260200160002060008673ffffffffffffffffffffffffffffffffffffffff1673ffffffffffffffffffffffffffffffffffffffff168152602001908152602001600020819055506117e6565b61176583826124c790919063ffffffff16565b600260003373ffffffffffffffffffffffffffffffffffffffff1673ffffffffffffffffffffffffffffffffffffffff16815260200190815260200160002060008673ffffffffffffffffffffffffffffffffffffffff1673ffffffffffffffffffffffffffffffffffffffff168152602001908152602001600020819055505b8373ffffffffffffffffffffffffffffffffffffffff163373ffffffffffffffffffffffffffffffffffffffff167f8c5be1e5ebec7d5bd14f71427d1e84f3dd0314c0f7b2291e5b200ac8c7c3b925600260003373ffffffffffffffffffffffffffffffffffffffff1673ffffffffffffffffffffffffffffffffffffffff16815260200190815260200160002060008873ffffffffffffffffffffffffffffffffffffffff1673ffffffffffffffffffffffffffffffffffffffff168152602001908152602001600020546040518082815260200191505060405180910390a3600191505092915050565b600080601360003373ffffffffffffffffffffffffffffffffffffffff1673ffffffffffffffffffffffffffffffffffffffff1681526020019081526020016000206000015414156119275760009050611933565b61193082612512565b90505b919050565b60008060008073ffffffffffffffffffffffffffffffffffffffff16600460009054906101000a900473ffffffffffffffffffffffffffffffffffffffff1673ffffffffffffffffffffffffffffffffffffffff161415151561199a57600080fd5b600e54421115156119aa57600080fd5b600073ffffffffffffffffffffffffffffffffffffffff16600460009054906101000a900473ffffffffffffffffffffffffffffffffffffffff1673ffffffffffffffffffffffffffffffffffffffff1614151515611a0857600080fd5b611a1d600e54426124c790919063ffffffff16565b9250600083111515611a2b57fe5b611a3783600554612915565b9150611a65600460009054906101000a900473ffffffffffffffffffffffffffffffffffffffff168361276f565b9050801515611a7357600080fd5b42600e81905550505050565b60155481565b6000600160008373ffffffffffffffffffffffffffffffffffffffff1673ffffffffffffffffffffffffffffffffffffffff168152602001908152602001600020549050919050565b6000601360003373ffffffffffffffffffffffffffffffffffffffff1673ffffffffffffffffffffffffffffffffffffffff16815260200190815260200160002060000154905090565b60075481565b600c5481565b600360009054906101000a900473ffffffffffffffffffffffffffffffffffffffff1681565b60055481565b6040805190810160405280600581526020017f5343414c4500000000000000000000000000000000000000000000000000000081525081565b600360009054906101000a900473ffffffffffffffffffffffffffffffffffffffff1673ffffffffffffffffffffffffffffffffffffffff163373ffffffffffffffffffffffffffffffffffffffff16141515611be557600080fd5b600360009054906101000a900473ffffffffffffffffffffffffffffffffffffffff1673ffffffffffffffffffffffffffffffffffffffff166108fc3073ffffffffffffffffffffffffffffffffffffffff16319081150290604051600060405180830381858888f193505050501515611c5b57fe5b565b60065481565b60008073ffffffffffffffffffffffffffffffffffffffff168373ffffffffffffffffffffffffffffffffffffffff1614151515611ca057600080fd5b600160003373ffffffffffffffffffffffffffffffffffffffff1673ffffffffffffffffffffffffffffffffffffffff168152602001908152602001600020548211151515611cee57600080fd5b611d4082600160003373ffffffffffffffffffffffffffffffffffffffff1673ffffffffffffffffffffffffffffffffffffffff168152602001908152602001600020546124c790919063ffffffff16565b600160003373ffffffffffffffffffffffffffffffffffffffff1673ffffffffffffffffffffffffffffffffffffffff16815260200190815260200160002081905550611dd582600160008673ffffffffffffffffffffffffffffffffffffffff1673ffffffffffffffffffffffffffffffffffffffff168152602001908152602001600020546124e090919063ffffffff16565b600160008573ffffffffffffffffffffffffffffffffffffffff1673ffffffffffffffffffffffffffffffffffffffff168152602001908152602001600020819055508273ffffffffffffffffffffffffffffffffffffffff163373ffffffffffffffffffffffffffffffffffffffff167fddf252ad1be2c89b69c2b068fc378daa952ba7f163c4a11628f55a4df523b3ef846040518082815260200191505060405180910390a36001905092915050565b600d5481565b60095481565b6000611f2482600260003373ffffffffffffffffffffffffffffffffffffffff1673ffffffffffffffffffffffffffffffffffffffff16815260200190815260200160002060008673ffffffffffffffffffffffffffffffffffffffff1673ffffffffffffffffffffffffffffffffffffffff168152602001908152602001600020546124e090919063ffffffff16565b600260003373ffffffffffffffffffffffffffffffffffffffff1673ffffffffffffffffffffffffffffffffffffffff16815260200190815260200160002060008573ffffffffffffffffffffffffffffffffffffffff1673ffffffffffffffffffffffffffffffffffffffff168152602001908152602001600020819055508273ffffffffffffffffffffffffffffffffffffffff163373ffffffffffffffffffffffffffffffffffffffff167f8c5be1e5ebec7d5bd14f71427d1e84f3dd0314c0f7b2291e5b200ac8c7c3b925600260003373ffffffffffffffffffffffffffffffffffffffff1673ffffffffffffffffffffffffffffffffffffffff16815260200190815260200160002060008773ffffffffffffffffffffffffffffffffffffffff1673ffffffffffffffffffffffffffffffffffffffff168152602001908152602001600020546040518082815260200191505060405180910390a36001905092915050565b6000600260008473ffffffffffffffffffffffffffffffffffffffff1673ffffffffffffffffffffffffffffffffffffffff16815260200190815260200160002060008373ffffffffffffffffffffffffffffffffffffffff1673ffffffffffffffffffffffffffffffffffffffff16815260200190815260200160002054905092915050565b60105481565b600360009054906101000a900473ffffffffffffffffffffffffffffffffffffffff1673ffffffffffffffffffffffffffffffffffffffff163373ffffffffffffffffffffffffffffffffffffffff1614151561217857600080fd5b600073ffffffffffffffffffffffffffffffffffffffff168173ffffffffffffffffffffffffffffffffffffffff16141515156121b457600080fd5b8073ffffffffffffffffffffffffffffffffffffffff16600360009054906101000a900473ffffffffffffffffffffffffffffffffffffffff1673ffffffffffffffffffffffffffffffffffffffff167f8be0079c531659141344cd1fd0a4f28419497f9722a3daafe3b4186f6b6457e060405160405180910390a380600360006101000a81548173ffffffffffffffffffffffffffffffffffffffff021916908373ffffffffffffffffffffffffffffffffffffffff16021790555050565b6000600160008473ffffffffffffffffffffffffffffffffffffffff1673ffffffffffffffffffffffffffffffffffffffff1681526020019081526020016000205482111515156122c457600080fd5b6000601360008573ffffffffffffffffffffffffffffffffffffffff1673ffffffffffffffffffffffffffffffffffffffff1681526020019081526020016000206000015414151561231557600080fd5b61236782600160008673ffffffffffffffffffffffffffffffffffffffff1673ffffffffffffffffffffffffffffffffffffffff168152602001908152602001600020546124c790919063ffffffff16565b600160008573ffffffffffffffffffffffffffffffffffffffff1673ffffffffffffffffffffffffffffffffffffffff1681526020019081526020016000208190555081601360008573ffffffffffffffffffffffffffffffffffffffff1673ffffffffffffffffffffffffffffffffffffffff16815260200190815260200160002060000181905550612406826010546124e090919063ffffffff16565b601081905550612421601254426124fc90919063ffffffff16565b601360008573ffffffffffffffffffffffffffffffffffffffff1673ffffffffffffffffffffffffffffffffffffffff1681526020019081526020016000206001018190555061246f6128df565b8273ffffffffffffffffffffffffffffffffffffffff167febedb8b3c678666e7f36970bc8f57abf6d8fa2e828c0da91ea5b75bf68ed101a836040518082815260200191505060405180910390a26001905092915050565b60008282111515156124d557fe5b818303905092915050565b600081830190508281101515156124f357fe5b80905092915050565b6000818381151561250957fe5b04905092915050565b6000806000806000806000806000806125366012548c6124fc90919063ffffffff16565b9850601360003373ffffffffffffffffffffffffffffffffffffffff1673ffffffffffffffffffffffffffffffffffffffff168152602001908152602001600020600101549750612590888a6124c790919063ffffffff16565b965060009550600094508792505b888310156126c957600060116000858152602001908152602001600020541415156126565761263961262a601360003373ffffffffffffffffffffffffffffffffffffffff1673ffffffffffffffffffffffffffffffffffffffff168152602001908152602001600020600001546011600087815260200190815260200160002054601260ff16612aff565b876124e090919063ffffffff16565b9550601160008481526020019081526020016000205493506126bc565b6126b96126aa601360003373ffffffffffffffffffffffffffffffffffffffff1673ffffffffffffffffffffffffffffffffffffffff1681526020019081526020016000206000015486601260ff16612aff565b876124e090919063ffffffff16565b95505b828060010193505061259e565b6126d586886000612aff565b91506126ec82600f54612b4c90919063ffffffff16565b9050612709670de0b6b3a7640000826124fc90919063ffffffff16565b905061016d8710151561273d5761273661273061016d601254612b4c90919063ffffffff16565b82612915565b945061275e565b61275b61275560125489612b4c90919063ffffffff16565b82612915565b94505b849950505050505050505050919050565b6000612786826000546124e090919063ffffffff16565b6000819055506127de82600160008673ffffffffffffffffffffffffffffffffffffffff1673ffffffffffffffffffffffffffffffffffffffff168152602001908152602001600020546124e090919063ffffffff16565b600160008573ffffffffffffffffffffffffffffffffffffffff1673ffffffffffffffffffffffffffffffffffffffff168152602001908152602001600020819055508273ffffffffffffffffffffffffffffffffffffffff167f0f6798a560793a54c3bcfe86a93cde1e73087d944c0ea20544137d4121396885836040518082815260200191505060405180910390a28273ffffffffffffffffffffffffffffffffffffffff16600073ffffffffffffffffffffffffffffffffffffffff167fddf252ad1be2c89b69c2b068fc378daa952ba7f163c4a11628f55a4df523b3ef846040518082815260200191505060405180910390a36001905092915050565b60006128f6601254426124fc90919063ffffffff16565b9050601054601160008381526020019081526020016000208190555050565b600061292a8284612b4c90919063ffffffff16565b905092915050565b42601581905550606460145411156129665761295b61012c6014546124c790919063ffffffff16565b60148190555061298f565b600a601454111561298e5761298760056014546124c790919063ffffffff16565b6014819055505b5b6129e160646129d3600a546129c56103e86129b7601454600054612b4c90919063ffffffff16565b6124fc90919063ffffffff16565b612b4c90919063ffffffff16565b6124fc90919063ffffffff16565b600781905550612a396064612a2b600b54612a1d6103e8612a0f601454600054612b4c90919063ffffffff16565b6124fc90919063ffffffff16565b612b4c90919063ffffffff16565b6124fc90919063ffffffff16565b600981905550612a916064612a83600c54612a756103e8612a67601454600054612b4c90919063ffffffff16565b6124fc90919063ffffffff16565b612b4c90919063ffffffff16565b6124fc90919063ffffffff16565b600881905550612ab36007546a1a1601fc4ea7109e000000601260ff16612aff565b600581905550612ad56009546a1a1601fc4ea7109e000000601260ff16612aff565b600681905550612af76008546a1a1601fc4ea7109e000000601260ff16612aff565b600f81905550565b600080612b1b60018401600a0a86612b4c90919063ffffffff16565b9450600a6005612b3486886124fc90919063ffffffff16565b01811515612b3e57fe5b049050809150509392505050565b600080831415612b5f5760009050612b7e565b8183029050818382811515612b7057fe5b04141515612b7a57fe5b8090505b929150505600a165627a7a72305820cc97b1b0e96158652ab64821c17bf2dbd63538a4f61a1ee285c7c5b002e43be90029",
  "source": "pragma solidity ^0.4.24;\n\n/**************************************************************\n * @title Scale Token Contract\n * @file Scale.sol\n * @author Jared Downing and Kane Thomas of the Scale Network\n * @version 1.0\n *\n * @section DESCRIPTION\n *\n * This is an ERC20-based token with staking and inflationary functionality.\n *\n *************************************************************/\n\n//////////////////////////////////\n/// OpenZeppelin library imports\n//////////////////////////////////\n\nimport \"../openzeppelin-solidity/contracts/token/ERC20/MintableToken.sol\";\nimport \"../openzeppelin-solidity/contracts/ownership/HasNoEther.sol\";\n\n//////////////////////////////////\n/// Scale Token\n//////////////////////////////////\n\ncontract Scale is MintableToken, HasNoEther {\n\n    // Libraries\n    using SafeMath for uint;\n\n    //////////////////////\n    // Token Information\n    //////////////////////\n    string public constant name = \"SCALE\";\n    string public constant symbol = \"SCALE\";\n    uint8 public constant  decimals = 18;\n\n    ///////////////////////////////////////////////////////////\n    // Variables For Staking and Pooling\n    ///////////////////////////////////////////////////////////\n\n    // -- Pool Minting Rates and Percentages -- //\n    // Pool for Scale distribution to rewards pool\n    // Set to 0 to prohibit issuing to the pool before it is assigned\n    address public pool = address(0);\n\n    // Pool and Owner minted tokens per second\n    uint public poolMintRate;\n    uint public ownerMintRate;\n\n    // Amount of Scale to be staked to the pool, staking, and mint, as calculated through their percentages\n    uint public poolMintAmount;\n    uint public stakingMintAmount;\n    uint public ownerMintAmount;\n\n    // Scale distribution percentages\n    uint public poolPercentage = 70;\n    uint public ownerPercentage = 5;\n    uint public stakingPercentage = 25;\n\n    // Last time minted for owner and pool\n    uint public ownerTimeLastMinted;\n    uint public poolTimeLastMinted;\n\n    // -- Staking -- //\n    // Minted tokens per second\n    uint public stakingMintRate;\n\n    // Total Scale currently staked\n    uint public totalScaleStaked;\n\n    // Mapping of the timestamp => totalStaking that is created each time an address stakes or unstakes\n    mapping (uint => uint) totalStakingHistory;\n\n    // Variable for staking accuracy. Set to 86400 for seconds in a day so that staking gains are based on the day an account begins staking.\n    uint timingVariable = 86400;\n\n    // Address staking information\n    struct AddressStakeData {\n        uint stakeBalance;\n        uint initialStakeTime;\n    }\n\n    // Track all tokens staked\n    mapping (address => AddressStakeData) public stakeBalances;\n\n    // -- Inflation -- //\n    // Inflation rate begins at 100% per year and decreases by 15% per year until it reaches 10% where it decreases by 0.5% per year\n    uint256 inflationRate = 1000;\n\n    // Used to manage when to inflate. Allowed to inflate once per year until the rate reaches 1%.\n    uint256 public lastInflationUpdate;\n\n    // -- Events -- //\n    // Fired when tokens are staked\n    event Stake(address indexed staker, uint256 value);\n    // Fired when tokens are unstaked\n    event Unstake(address indexed unstaker, uint256 stakedAmount, uint256 stakingGains);\n\n    //////////////////////////////////////////////////\n    /// Scale Token Functionality\n    //////////////////////////////////////////////////\n\n    /** \n     * @dev Scale token constructor\n     */\n    constructor() public {\n        // Assign owner\n        owner = msg.sender;\n\n        // Assign initial owner supply\n        uint _initOwnerSupply = 10000000 ether;\n        // Mint given to owner only one-time\n        bool _success = mint(msg.sender, _initOwnerSupply);\n        // Require minting success\n        require(_success);\n\n        // Set pool and owner last minted to ensure extra coins are not minted by either\n        ownerTimeLastMinted = now;\n        poolTimeLastMinted = now;\n\n        // Set minting amount for pool, staking, and owner over the course of 1 year\n        poolMintAmount = _initOwnerSupply.mul(poolPercentage).div(100);\n        ownerMintAmount = _initOwnerSupply.mul(ownerPercentage).div(100);\n        stakingMintAmount = _initOwnerSupply.mul(stakingPercentage).div(100);\n\n        // One year in seconds\n        uint _oneYearInSeconds = 31536000 ether;\n\n        // Set the rate of coins minted per second for the pool, owner, and global staking\n        poolMintRate = calculateFraction(poolMintAmount, _oneYearInSeconds, decimals);\n        ownerMintRate = calculateFraction(ownerMintAmount, _oneYearInSeconds, decimals);\n        stakingMintRate = calculateFraction(stakingMintAmount, _oneYearInSeconds, decimals);\n\n        // Set the last time inflation was update to now so that the next time it can be updated is 1 year from now\n        lastInflationUpdate = now;\n    }\n\n    /////////////\n    // Inflation\n    /////////////\n    /** \n     * @dev the inflation rate begins at 100% and decreases by 15% every year until it reaches 10%\n     * at 10% the rate begins to decrease by 0.5% until it reaches 1%\n     */\n    function adjustInflationRate() private {\n\n\n      // Make sure adjustInflationRate cannot be called for at least another year\n      lastInflationUpdate = now;\n\n      // Decrease inflation rate by 15% each year\n      if (inflationRate > 100) {\n\n        inflationRate = inflationRate.sub(300);\n      }\n      // Inflation rate reaches 10%. Decrease inflation rate by 0.5% from here on out until it reaches 1%.\n      else if (inflationRate > 10) {\n\n        inflationRate = inflationRate.sub(5);\n      }\n\n      // Calculate new mint amount of Scale that should be created per year.\n      // Example Inflation Past Year 1 for the poolMintAmount: 16M * 0.85 * 0.7 = 9,520,000\n      poolMintAmount = totalSupply.mul(inflationRate).div(1000).mul(poolPercentage).div(100);\n      ownerMintAmount = totalSupply.mul(inflationRate).div(1000).mul(ownerPercentage).div(100);\n      stakingMintAmount = totalSupply.mul(inflationRate).div(1000).mul(stakingPercentage).div(100);\n\n        // Adjust Scale created per-second for each rate\n        poolMintRate = calculateFraction(poolMintAmount, 31536000 ether, decimals);\n        ownerMintRate = calculateFraction(ownerMintAmount, 31536000 ether, decimals);\n        stakingMintRate = calculateFraction(stakingMintAmount, 31536000 ether, decimals);\n    }\n    /** \n     * @dev anyone can call this function to update the inflation rate yearly\n     */\n    function updateInflationRate() public {\n\n      // Require 1 year to have passed for every inflation adjustment\n      require(now.sub(lastInflationUpdate) >= 31536000);\n\n      adjustInflationRate();\n\n    }\n\n    /////////////\n    // Staking\n    /////////////\n\n    /** \n     * @dev staking function which allows users to stake an amount of tokens to gain interest for up to 30 days\n     * @param _stakeAmount how many tokens a user wants to stake\n     */\n    function stakeScale(uint _stakeAmount) external {\n\n        // Require that tokens are staked successfully\n        require(stake(msg.sender, _stakeAmount));\n    }\n    /**\n     * @dev stake for a seperate address\n     * @param _stakeAmount how many tokens a user wants to stake\n     */\n    function stakeFor(address _user, uint _stakeAmount) external {\n\n      // You can only stake tokens for another user if they have not already staked tokens\n      require(stakeBalances[_user].stakeBalance == 0);\n\n      // Transfer Scale from to the user\n      transfer( _user, _stakeAmount);\n\n      // Stake for the user\n      stake(_user, _stakeAmount);\n    }\n    /**\n      * @dev stake function reduces the user's total available balance and adds it to their staking balance\n      * @param _value how many tokens a user wants to stake\n      */\n    function stake(address _user, uint256 _value) private returns (bool success) {\n\n        // You can only stake as many tokens as you have\n        require(_value <= balances[_user]);\n        // You can only stake tokens if you have not already staked tokens\n        require(stakeBalances[_user].stakeBalance == 0);\n\n        // Subtract stake amount from regular token balance\n        balances[_user] = balances[_user].sub(_value);\n\n        // Add stake amount to staked balance\n        stakeBalances[_user].stakeBalance = _value;\n\n        // Increment the staking staked tokens value\n        totalScaleStaked = totalScaleStaked.add(_value);\n\n        // Save the time that the stake started\n        stakeBalances[_user].initialStakeTime = now.div(timingVariable);\n\n        // Set the new staking history\n        setTotalStakingHistory();\n\n        // Fire an event to tell the world of the newly staked tokens\n        emit Stake(_user, _value);\n\n        return true;\n    }\n    /**\n      * @dev returns how much Scale a user has earned so far\n      * @param _now is passed in to allow for a gas-free analysis\n      * @return staking gains based on the amount of time passed since staking began\n      */\n    function getStakingGains(uint _now) view public returns (uint) {\n\n        if (stakeBalances[msg.sender].stakeBalance == 0) {\n\n          return 0;\n        }\n\n        return calculateStakeGains(_now);\n    }\n    \n    /**\n     * @dev allows users to reclaim any staked tokens\n     * @return bool on success\n     */\n    function unstake() external returns (bool) {\n\n        // Require that there was some amount vested\n        require(stakeBalances[msg.sender].stakeBalance > 0);\n\n        // Require that at least 7 timing variables have passed (days)\n        require(now.div(timingVariable).sub(stakeBalances[msg.sender].initialStakeTime) >= 7);\n\n        // Calculate tokens to mint\n        uint _tokensToMint = calculateStakeGains(now);\n\n        balances[msg.sender] = balances[msg.sender].add(stakeBalances[msg.sender].stakeBalance);\n\n        // Subtract stake balance from totalScaleStaked\n        totalScaleStaked = totalScaleStaked.sub(stakeBalances[msg.sender].stakeBalance);\n\n        // Mint the new tokens to the sender\n        mint(msg.sender, _tokensToMint);\n\n        // Scale unstaked event\n        emit Unstake(msg.sender, stakeBalances[msg.sender].stakeBalance, _tokensToMint);\n\n        // Clear out stored data from mapping\n        stakeBalances[msg.sender].stakeBalance = 0;\n        stakeBalances[msg.sender].initialStakeTime = 0;\n\n        // Set this every time someone adjusts the totalScaleStaking amount\n        setTotalStakingHistory();\n\n        return true;\n    }\n\n    /**\n     * @dev Helper function to claimStake that modularizes the minting via staking calculation\n     * @param _now when the user stopped staking. Passed in as a variable to allow for checking without using gas from the getStakingGains function.\n     * @return uint for total coins to be minted\n     */\n    function calculateStakeGains(uint _now) view private returns (uint mintTotal)  {\n\n      uint _nowAsTimingVariable = _now.div(timingVariable);    // Today as a unique value in unix time\n      uint _initialStakeTimeInVariable = stakeBalances[msg.sender].initialStakeTime; // When the user started staking as a unique day in unix time\n      uint _timePassedSinceStakeInVariable = _nowAsTimingVariable.sub(_initialStakeTimeInVariable); // How much time has passed, in days, since the user started staking.\n      uint _stakePercentages = 0; // Keeps an additive track of the user's staking percentages over time\n      uint _tokensToMint = 0; // How many new Scale tokens to create\n      uint _lastUsedVariable;  // Last day the totalScaleStaked was updated\n\n      // Average this msg.sender's relative percentage ownership of totalScaleStaked throughout each day since they started staking\n      for (uint i = _initialStakeTimeInVariable; i < _nowAsTimingVariable; i++) {\n\n        // If the day exists add it to the percentages\n        if (totalStakingHistory[i] != 0) {\n\n           // If the day does exist add it to the number to be later averaged as a total average percentage of total staking\n          _stakePercentages = _stakePercentages.add(calculateFraction(stakeBalances[msg.sender].stakeBalance, totalStakingHistory[i], decimals));\n\n          // Set this as the last day someone staked\n          _lastUsedVariable = totalStakingHistory[i];\n        }\n        else {\n\n          // Use the last day found in the totalStakingHistory mapping\n          _stakePercentages = _stakePercentages.add(calculateFraction(stakeBalances[msg.sender].stakeBalance, _lastUsedVariable, decimals));\n        }\n\n      }\n\n        // Get the account's average percentage staked of the total stake over the course of all days they have been staking\n        uint _stakePercentageAverage = calculateFraction(_stakePercentages, _timePassedSinceStakeInVariable, 0);\n\n        // Calculate this account's mint rate per second while staking\n        uint _finalMintRate = stakingMintRate.mul(_stakePercentageAverage);\n\n        // Account for 18 decimals when calculating the amount of tokens to mint\n        _finalMintRate = _finalMintRate.div(1 ether);\n\n        // Calculate total tokens to be minted. Multiply by timingVariable to convert back to seconds.\n        if (_timePassedSinceStakeInVariable >= 365) {\n\n          // Tokens were staked for the maximum amount of time, one year. Give them one year's worth of tokens. ( this limit is placed to avoid gas limits)\n          _tokensToMint = calculateMintTotal(timingVariable.mul(365), _finalMintRate);\n        }\n        else {\n\n          // Tokens were staked for less than the maximum amount of time\n          _tokensToMint = calculateMintTotal(_timePassedSinceStakeInVariable.mul(timingVariable), _finalMintRate);\n        }\n\n        return  _tokensToMint;\n    }\n     /**\n      * @dev set the new totalStakingHistory mapping to the current timestamp and totalScaleStaked\n      */\n    function setTotalStakingHistory() private {\n\n      // Get now in terms of the variable staking accuracy (days in Scale's case)\n      uint _nowAsTimingVariable = now.div(timingVariable);\n\n      // Set the totalStakingHistory as a timestamp of the totalScaleStaked today\n      totalStakingHistory[_nowAsTimingVariable] = totalScaleStaked;\n    }\n\n    /**\n      * @dev Allows user to check their staked balance\n      * @return staked balance\n      */\n    function getStakedBalance() view external returns (uint stakedBalance) {\n\n        return stakeBalances[msg.sender].stakeBalance;\n    }\n\n    /////////////\n    // Scale Owner Claiming\n    /////////////\n\n    /**\n     * @dev allows contract owner to claim their mint\n     */\n    function ownerClaim() external onlyOwner {\n\n        require(now > ownerTimeLastMinted);\n\n        uint _timePassedSinceLastMint; // The amount of time passed since the owner claimed in seconds\n        uint _tokenMintCount; // The amount of new tokens to mint\n        bool _mintingSuccess; // The success of minting the new Scale tokens\n\n        // Calculate the number of seconds that have passed since the owner last took a claim\n        _timePassedSinceLastMint = now.sub(ownerTimeLastMinted);\n\n        assert(_timePassedSinceLastMint > 0);\n\n        // Determine the token mint amount, determined from the number of seconds passed and the ownerMintRate\n        _tokenMintCount = calculateMintTotal(_timePassedSinceLastMint, ownerMintRate);\n\n        // Mint the owner's tokens; this also increases totalSupply\n        _mintingSuccess = mint(msg.sender, _tokenMintCount);\n\n        require(_mintingSuccess);\n\n        // New minting was a success. Set last time minted to current block.timestamp (now)\n        ownerTimeLastMinted = now;\n    }\n\n    ////////////////////////////////\n    // Scale Pool Distribution\n    ////////////////////////////////\n\n    /**\n      * @dev anyone can call this function that mints Scale to the pool dedicated to Scale distribution to rewards pool\n      */\n    function poolIssue() public {\n\n        // Do not allow tokens to be minted to the pool until the pool is set\n        require(pool != address(0));\n\n        // Make sure time has passed since last minted to pool\n        require(now > poolTimeLastMinted);\n        require(pool != address(0));\n\n        uint _timePassedSinceLastMint; // The amount of time passed since the pool claimed in seconds\n        uint _tokenMintCount; // The amount of new tokens to mint\n        bool _mintingSuccess; // The success of minting the new Scale tokens\n\n        // Calculate the number of seconds that have passed since the owner last took a claim\n        _timePassedSinceLastMint = now.sub(poolTimeLastMinted);\n\n        assert(_timePassedSinceLastMint > 0);\n\n        // Determine the token mint amount, determined from the number of seconds passed and the ownerMintRate\n        _tokenMintCount = calculateMintTotal(_timePassedSinceLastMint, poolMintRate);\n\n        // Mint the owner's tokens; this also increases totalSupply\n        _mintingSuccess = mint(pool, _tokenMintCount);\n\n        require(_mintingSuccess);\n\n        // New minting was a success! Set last time minted to current block.timestamp (now)\n        poolTimeLastMinted = now;\n    }\n    /**\n     * @dev sets the address for the rewards pool\n     * @param _newAddress pool Address\n     */\n    function setPool(address _newAddress) public onlyOwner {\n\n        pool = _newAddress;\n    }\n\n    ////////////////////////////////\n    // Helper Functions\n    ////////////////////////////////\n    /**\n      * @dev calculateFraction allows us to better handle the Solidity ugliness of not having decimals as a native type\n      * @param _numerator is the top part of the fraction we are calculating\n      * @param _denominator is the bottom part of the fraction we are calculating\n      * @param _precision tells the function how many significant digits to calculate out to\n      * @return quotient returns the result of our fraction calculation\n      */\n    function calculateFraction(uint _numerator, uint _denominator, uint _precision) pure private returns(uint quotient) {\n        // Take passed value and expand it to the required precision\n        _numerator = _numerator.mul(10 ** (_precision + 1));\n        // Handle last-digit rounding\n        uint _quotient = ((_numerator.div(_denominator)) + 5) / 10;\n        return (_quotient);\n    }\n\n    /**\n      * @dev Determines the amount of Scale to create based on the number of seconds that have passed\n      * @param _timeInSeconds is the time passed in seconds to mint for\n      * @return uint with the calculated number of new tokens to mint\n     */\n    function calculateMintTotal(uint _timeInSeconds, uint _mintRate) pure private returns(uint mintAmount) {\n        // Calculates the amount of tokens to mint based upon the number of seconds passed\n        return(_timeInSeconds.mul(_mintRate));\n    }\n\n}\n",
  "sourcePath": "/Users/kanethomas/sigil-coin-develop/contracts/Scale.sol",
  "compiler": {
    "name": "solc",
    "version": "0.4.24+commit.e67f0147.Emscripten.clang"
  },
  "schemaVersion": "2.0.0",
  "updatedAt": "2018-07-29T03:43:35.285Z"
}