{
  "contractName": "Scale",
  "abi": [
    {
      "constant": true,
      "inputs": [],
      "name": "stakingMintAmount",
      "outputs": [
        {
          "name": "",
          "type": "uint256"
        }
      ],
      "payable": false,
      "stateMutability": "view",
      "type": "function"
    },
    {
      "constant": true,
      "inputs": [],
      "name": "name",
      "outputs": [
        {
          "name": "",
          "type": "string"
        }
      ],
      "payable": false,
      "stateMutability": "view",
      "type": "function"
    },
    {
      "constant": false,
      "inputs": [
        {
          "name": "_spender",
          "type": "address"
        },
        {
          "name": "_value",
          "type": "uint256"
        }
      ],
      "name": "approve",
      "outputs": [
        {
          "name": "",
          "type": "bool"
        }
      ],
      "payable": false,
      "stateMutability": "nonpayable",
      "type": "function"
    },
    {
      "constant": true,
      "inputs": [],
      "name": "pool",
      "outputs": [
        {
          "name": "",
          "type": "address"
        }
      ],
      "payable": false,
      "stateMutability": "view",
      "type": "function"
    },
    {
      "constant": true,
      "inputs": [],
      "name": "totalSupply",
      "outputs": [
        {
          "name": "",
          "type": "uint256"
        }
      ],
      "payable": false,
      "stateMutability": "view",
      "type": "function"
    },
    {
      "constant": false,
      "inputs": [
        {
          "name": "_from",
          "type": "address"
        },
        {
          "name": "_to",
          "type": "address"
        },
        {
          "name": "_value",
          "type": "uint256"
        }
      ],
      "name": "transferFrom",
      "outputs": [
        {
          "name": "",
          "type": "bool"
        }
      ],
      "payable": false,
      "stateMutability": "nonpayable",
      "type": "function"
    },
    {
      "constant": true,
      "inputs": [],
      "name": "decimals",
      "outputs": [
        {
          "name": "",
          "type": "uint8"
        }
      ],
      "payable": false,
      "stateMutability": "view",
      "type": "function"
    },
    {
      "constant": true,
      "inputs": [
        {
          "name": "",
          "type": "address"
        }
      ],
      "name": "stakeBalances",
      "outputs": [
        {
          "name": "stakeBalance",
          "type": "uint256"
        },
        {
          "name": "initialStakeTime",
          "type": "uint256"
        },
        {
          "name": "unstakeTime",
          "type": "uint256"
        }
      ],
      "payable": false,
      "stateMutability": "view",
      "type": "function"
    },
    {
      "constant": true,
      "inputs": [],
      "name": "poolPercentage",
      "outputs": [
        {
          "name": "",
          "type": "uint256"
        }
      ],
      "payable": false,
      "stateMutability": "view",
      "type": "function"
    },
    {
      "constant": true,
      "inputs": [],
      "name": "ownerPercentage",
      "outputs": [
        {
          "name": "",
          "type": "uint256"
        }
      ],
      "payable": false,
      "stateMutability": "view",
      "type": "function"
    },
    {
      "constant": false,
      "inputs": [
        {
          "name": "_value",
          "type": "uint256"
        }
      ],
      "name": "burn",
      "outputs": [],
      "payable": false,
      "stateMutability": "nonpayable",
      "type": "function"
    },
    {
      "constant": true,
      "inputs": [],
      "name": "poolTimeLastMinted",
      "outputs": [
        {
          "name": "",
          "type": "uint256"
        }
      ],
      "payable": false,
      "stateMutability": "view",
      "type": "function"
    },
    {
      "constant": true,
      "inputs": [],
      "name": "stakingMintRate",
      "outputs": [
        {
          "name": "",
          "type": "uint256"
        }
      ],
      "payable": false,
      "stateMutability": "view",
      "type": "function"
    },
    {
      "constant": false,
      "inputs": [
        {
          "name": "_spender",
          "type": "address"
        },
        {
          "name": "_subtractedValue",
          "type": "uint256"
        }
      ],
      "name": "decreaseApproval",
      "outputs": [
        {
          "name": "",
          "type": "bool"
        }
      ],
      "payable": false,
      "stateMutability": "nonpayable",
      "type": "function"
    },
    {
      "constant": true,
      "inputs": [],
      "name": "lastInflationUpdate",
      "outputs": [
        {
          "name": "",
          "type": "uint256"
        }
      ],
      "payable": false,
      "stateMutability": "view",
      "type": "function"
    },
    {
      "constant": true,
      "inputs": [
        {
          "name": "_owner",
          "type": "address"
        }
      ],
      "name": "balanceOf",
      "outputs": [
        {
          "name": "balance",
          "type": "uint256"
        }
      ],
      "payable": false,
      "stateMutability": "view",
      "type": "function"
    },
    {
      "constant": true,
      "inputs": [],
      "name": "poolMintAmount",
      "outputs": [
        {
          "name": "",
          "type": "uint256"
        }
      ],
      "payable": false,
      "stateMutability": "view",
      "type": "function"
    },
    {
      "constant": true,
      "inputs": [],
      "name": "stakingPercentage",
      "outputs": [
        {
          "name": "",
          "type": "uint256"
        }
      ],
      "payable": false,
      "stateMutability": "view",
      "type": "function"
    },
    {
      "constant": true,
      "inputs": [],
      "name": "owner",
      "outputs": [
        {
          "name": "",
          "type": "address"
        }
      ],
      "payable": false,
      "stateMutability": "view",
      "type": "function"
    },
    {
      "constant": true,
      "inputs": [],
      "name": "poolMintRate",
      "outputs": [
        {
          "name": "",
          "type": "uint256"
        }
      ],
      "payable": false,
      "stateMutability": "view",
      "type": "function"
    },
    {
      "constant": true,
      "inputs": [],
      "name": "symbol",
      "outputs": [
        {
          "name": "",
          "type": "string"
        }
      ],
      "payable": false,
      "stateMutability": "view",
      "type": "function"
    },
    {
      "constant": false,
      "inputs": [],
      "name": "reclaimEther",
      "outputs": [],
      "payable": false,
      "stateMutability": "nonpayable",
      "type": "function"
    },
    {
      "constant": true,
      "inputs": [],
      "name": "ownerMintRate",
      "outputs": [
        {
          "name": "",
          "type": "uint256"
        }
      ],
      "payable": false,
      "stateMutability": "view",
      "type": "function"
    },
    {
      "constant": false,
      "inputs": [
        {
          "name": "_to",
          "type": "address"
        },
        {
          "name": "_value",
          "type": "uint256"
        }
      ],
      "name": "transfer",
      "outputs": [
        {
          "name": "",
          "type": "bool"
        }
      ],
      "payable": false,
      "stateMutability": "nonpayable",
      "type": "function"
    },
    {
      "constant": true,
      "inputs": [],
      "name": "ownerTimeLastMinted",
      "outputs": [
        {
          "name": "",
          "type": "uint256"
        }
      ],
      "payable": false,
      "stateMutability": "view",
      "type": "function"
    },
    {
      "constant": true,
      "inputs": [],
      "name": "ownerMintAmount",
      "outputs": [
        {
          "name": "",
          "type": "uint256"
        }
      ],
      "payable": false,
      "stateMutability": "view",
      "type": "function"
    },
    {
      "constant": false,
      "inputs": [
        {
          "name": "_spender",
          "type": "address"
        },
        {
          "name": "_addedValue",
          "type": "uint256"
        }
      ],
      "name": "increaseApproval",
      "outputs": [
        {
          "name": "",
          "type": "bool"
        }
      ],
      "payable": false,
      "stateMutability": "nonpayable",
      "type": "function"
    },
    {
      "constant": true,
      "inputs": [
        {
          "name": "_owner",
          "type": "address"
        },
        {
          "name": "_spender",
          "type": "address"
        }
      ],
      "name": "allowance",
      "outputs": [
        {
          "name": "",
          "type": "uint256"
        }
      ],
      "payable": false,
      "stateMutability": "view",
      "type": "function"
    },
    {
      "constant": true,
      "inputs": [],
      "name": "totalScaleStaked",
      "outputs": [
        {
          "name": "",
          "type": "uint256"
        }
      ],
      "payable": false,
      "stateMutability": "view",
      "type": "function"
    },
    {
      "constant": false,
      "inputs": [
        {
          "name": "newOwner",
          "type": "address"
        }
      ],
      "name": "transferOwnership",
      "outputs": [],
      "payable": false,
      "stateMutability": "nonpayable",
      "type": "function"
    },
    {
      "inputs": [],
      "payable": false,
      "stateMutability": "nonpayable",
      "type": "constructor"
    },
    {
      "payable": false,
      "stateMutability": "nonpayable",
      "type": "fallback"
    },
    {
      "anonymous": false,
      "inputs": [
        {
          "indexed": true,
          "name": "staker",
          "type": "address"
        },
        {
          "indexed": false,
          "name": "value",
          "type": "uint256"
        }
      ],
      "name": "Stake",
      "type": "event"
    },
    {
      "anonymous": false,
      "inputs": [
        {
          "indexed": true,
          "name": "unstaker",
          "type": "address"
        },
        {
          "indexed": false,
          "name": "stakedAmount",
          "type": "uint256"
        }
      ],
      "name": "Unstake",
      "type": "event"
    },
    {
      "anonymous": false,
      "inputs": [
        {
          "indexed": true,
          "name": "claimer",
          "type": "address"
        },
        {
          "indexed": false,
          "name": "stakedAmount",
          "type": "uint256"
        },
        {
          "indexed": false,
          "name": "stakingGains",
          "type": "uint256"
        }
      ],
      "name": "ClaimStake",
      "type": "event"
    },
    {
      "anonymous": false,
      "inputs": [
        {
          "indexed": true,
          "name": "burner",
          "type": "address"
        },
        {
          "indexed": false,
          "name": "value",
          "type": "uint256"
        }
      ],
      "name": "Burn",
      "type": "event"
    },
    {
      "anonymous": false,
      "inputs": [
        {
          "indexed": true,
          "name": "to",
          "type": "address"
        },
        {
          "indexed": false,
          "name": "amount",
          "type": "uint256"
        }
      ],
      "name": "Mint",
      "type": "event"
    },
    {
      "anonymous": false,
      "inputs": [
        {
          "indexed": true,
          "name": "previousOwner",
          "type": "address"
        },
        {
          "indexed": true,
          "name": "newOwner",
          "type": "address"
        }
      ],
      "name": "OwnershipTransferred",
      "type": "event"
    },
    {
      "anonymous": false,
      "inputs": [
        {
          "indexed": true,
          "name": "owner",
          "type": "address"
        },
        {
          "indexed": true,
          "name": "spender",
          "type": "address"
        },
        {
          "indexed": false,
          "name": "value",
          "type": "uint256"
        }
      ],
      "name": "Approval",
      "type": "event"
    },
    {
      "anonymous": false,
      "inputs": [
        {
          "indexed": true,
          "name": "from",
          "type": "address"
        },
        {
          "indexed": true,
          "name": "to",
          "type": "address"
        },
        {
          "indexed": false,
          "name": "value",
          "type": "uint256"
        }
      ],
      "name": "Transfer",
      "type": "event"
    },
    {
      "constant": false,
      "inputs": [],
      "name": "updateInflationRate",
      "outputs": [],
      "payable": false,
      "stateMutability": "nonpayable",
      "type": "function"
    },
    {
      "constant": false,
      "inputs": [
        {
          "name": "_stakeAmount",
          "type": "uint256"
        }
      ],
      "name": "stake",
      "outputs": [],
      "payable": false,
      "stateMutability": "nonpayable",
      "type": "function"
    },
    {
      "constant": false,
      "inputs": [
        {
          "name": "_user",
          "type": "address"
        },
        {
          "name": "_amount",
          "type": "uint256"
        }
      ],
      "name": "stakeFor",
      "outputs": [],
      "payable": false,
      "stateMutability": "nonpayable",
      "type": "function"
    },
    {
      "constant": false,
      "inputs": [],
      "name": "claimStake",
      "outputs": [
        {
          "name": "",
          "type": "bool"
        }
      ],
      "payable": false,
      "stateMutability": "nonpayable",
      "type": "function"
    },
    {
      "constant": false,
      "inputs": [],
      "name": "initUnstake",
      "outputs": [
        {
          "name": "",
          "type": "bool"
        }
      ],
      "payable": false,
      "stateMutability": "nonpayable",
      "type": "function"
    },
    {
      "constant": true,
      "inputs": [
        {
          "name": "_user",
          "type": "address"
        }
      ],
      "name": "timeUntilClaimAvaliable",
      "outputs": [
        {
          "name": "",
          "type": "uint256"
        }
      ],
      "payable": false,
      "stateMutability": "view",
      "type": "function"
    },
    {
      "constant": true,
      "inputs": [
        {
          "name": "_user",
          "type": "address"
        }
      ],
      "name": "stakeBalanceOf",
      "outputs": [
        {
          "name": "",
          "type": "uint256"
        }
      ],
      "payable": false,
      "stateMutability": "view",
      "type": "function"
    },
    {
      "constant": true,
      "inputs": [
        {
          "name": "_now",
          "type": "uint256"
        }
      ],
      "name": "getStakingGains",
      "outputs": [
        {
          "name": "",
          "type": "uint256"
        }
      ],
      "payable": false,
      "stateMutability": "view",
      "type": "function"
    },
    {
      "constant": false,
      "inputs": [],
      "name": "ownerClaim",
      "outputs": [],
      "payable": false,
      "stateMutability": "nonpayable",
      "type": "function"
    },
    {
      "constant": false,
      "inputs": [],
      "name": "poolIssue",
      "outputs": [],
      "payable": false,
      "stateMutability": "nonpayable",
      "type": "function"
    },
    {
      "constant": false,
      "inputs": [
        {
          "name": "_newAddress",
          "type": "address"
        }
      ],
      "name": "setPool",
      "outputs": [],
      "payable": false,
      "stateMutability": "nonpayable",
      "type": "function"
    }
  ],
  "bytecode": "0x60806040526000600460006101000a81548173ffffffffffffffffffffffffffffffffffffffff021916908373ffffffffffffffffffffffffffffffffffffffff1602179055506046600a556005600b556019600c55620151806012556103e86014553480156200006f57600080fd5b50600080600033600360006101000a81548173ffffffffffffffffffffffffffffffffffffffff021916908373ffffffffffffffffffffffffffffffffffffffff160217905550600034141515620000c657600080fd5b33600360006101000a81548173ffffffffffffffffffffffffffffffffffffffff021916908373ffffffffffffffffffffffffffffffffffffffff1602179055506a084595161401484a0000009250620001303384620002cd640100000000026401000000009004565b91508115156200013f57600080fd5b42600d8190555042600e8190555062000195606462000178600a54866200045d6401000000000262002e8b179091906401000000009004565b620004996401000000000262002b77179091906401000000009004565b600781905550620001e36064620001c6600b54866200045d6401000000000262002e8b179091906401000000009004565b620004996401000000000262002b77179091906401000000009004565b60098190555062000231606462000214600c54866200045d6401000000000262002e8b179091906401000000009004565b620004996401000000000262002b77179091906401000000009004565b6008819055506a1a1601fc4ea7109e00000090506200026760075482601260ff16620004b0640100000000026401000000009004565b6005819055506200028f60095482601260ff16620004b0640100000000026401000000009004565b600681905550620002b760085482601260ff16620004b0640100000000026401000000009004565b600f81905550426015819055505050506200053b565b6000620002f4826000546200051e64010000000002620024e5179091906401000000009004565b6000819055506200035c82600160008673ffffffffffffffffffffffffffffffffffffffff1673ffffffffffffffffffffffffffffffffffffffff168152602001908152602001600020546200051e64010000000002620024e5179091906401000000009004565b600160008573ffffffffffffffffffffffffffffffffffffffff1673ffffffffffffffffffffffffffffffffffffffff168152602001908152602001600020819055508273ffffffffffffffffffffffffffffffffffffffff167f0f6798a560793a54c3bcfe86a93cde1e73087d944c0ea20544137d4121396885836040518082815260200191505060405180910390a28273ffffffffffffffffffffffffffffffffffffffff16600073ffffffffffffffffffffffffffffffffffffffff167fddf252ad1be2c89b69c2b068fc378daa952ba7f163c4a11628f55a4df523b3ef846040518082815260200191505060405180910390a36001905092915050565b60008083141562000472576000905062000493565b81830290508183828115156200048457fe5b041415156200048f57fe5b8090505b92915050565b60008183811515620004a757fe5b04905092915050565b600080620004dc60018401600a0a866200045d6401000000000262002e8b179091906401000000009004565b9450600a6005620005058688620004996401000000000262002b77179091906401000000009004565b018115156200051057fe5b049050809150509392505050565b600081830190508281101515156200053257fe5b80905092915050565b61328c806200054b6000396000f3006080604052600436106101f9576000357c0100000000000000000000000000000000000000000000000000000000900463ffffffff16806304e78a301461020857806306fdde0314610233578063095ea7b3146102c357806316f0115b1461032857806318160ddd1461037f57806323b872dd146103aa5780632ee409081461042f578063313ce5671461047c5780633b317dab146104ad5780633e7e30ba1461051257806341da75551461053d57806342966c68146105685780634437152a146105955780634dbe5889146105d8578063531e4827146105ef57806361c083b91461061a578063628a01ce14610631578063661884631461065c57806366e1cebd146106c15780636b178f47146107025780636b4e8bb01461071957806370a08231146107445780637e5755241461079b57806381e1ccba146107c65780638da5cb5b146107f157806390cad5371461084857806395d89b41146108735780639f727c2714610903578063a08ed1cb1461091a578063a0d8b4e914610949578063a694fc3a14610974578063a9059cbb146109a1578063ac18564414610a06578063af2759f714610a31578063af46aa0814610a88578063bb00c8f914610adf578063d73dd62314610b0a578063dd62ed3e14610b6f578063eb32117314610be6578063f162c5a114610c15578063f2fde38b14610c40575b34801561020557600080fd5b50005b34801561021457600080fd5b5061021d610c83565b6040518082815260200191505060405180910390f35b34801561023f57600080fd5b50610248610c89565b6040518080602001828103825283818151815260200191508051906020019080838360005b8381101561028857808201518184015260208101905061026d565b50505050905090810190601f1680156102b55780820380516001836020036101000a031916815260200191505b509250505060405180910390f35b3480156102cf57600080fd5b5061030e600480360381019080803573ffffffffffffffffffffffffffffffffffffffff16906020019092919080359060200190929190505050610cc2565b604051808215151515815260200191505060405180910390f35b34801561033457600080fd5b5061033d610db4565b604051808273ffffffffffffffffffffffffffffffffffffffff1673ffffffffffffffffffffffffffffffffffffffff16815260200191505060405180910390f35b34801561038b57600080fd5b50610394610dda565b6040518082815260200191505060405180910390f35b3480156103b657600080fd5b50610415600480360381019080803573ffffffffffffffffffffffffffffffffffffffff169060200190929190803573ffffffffffffffffffffffffffffffffffffffff16906020019092919080359060200190929190505050610de0565b604051808215151515815260200191505060405180910390f35b34801561043b57600080fd5b5061047a600480360381019080803573ffffffffffffffffffffffffffffffffffffffff1690602001909291908035906020019092919050505061119f565b005b34801561048857600080fd5b506104916111b8565b604051808260ff1660ff16815260200191505060405180910390f35b3480156104b957600080fd5b506104ee600480360381019080803573ffffffffffffffffffffffffffffffffffffffff1690602001909291905050506111bd565b60405180848152602001838152602001828152602001935050505060405180910390f35b34801561051e57600080fd5b506105276111e7565b6040518082815260200191505060405180910390f35b34801561054957600080fd5b506105526111ed565b6040518082815260200191505060405180910390f35b34801561057457600080fd5b50610593600480360381019080803590602001909291905050506111f3565b005b3480156105a157600080fd5b506105d6600480360381019080803573ffffffffffffffffffffffffffffffffffffffff169060200190929190505050611200565b005b3480156105e457600080fd5b506105ed6112a0565b005b3480156105fb57600080fd5b50610604611366565b6040518082815260200191505060405180910390f35b34801561062657600080fd5b5061062f61136c565b005b34801561063d57600080fd5b5061064661139d565b6040518082815260200191505060405180910390f35b34801561066857600080fd5b506106a7600480360381019080803573ffffffffffffffffffffffffffffffffffffffff169060200190929190803590602001909291905050506113a3565b604051808215151515815260200191505060405180910390f35b3480156106cd57600080fd5b506106ec60048036038101908080359060200190929190505050611634565b6040518082815260200191505060405180910390f35b34801561070e57600080fd5b506107176116ae565b005b34801561072557600080fd5b5061072e6117f5565b6040518082815260200191505060405180910390f35b34801561075057600080fd5b50610785600480360381019080803573ffffffffffffffffffffffffffffffffffffffff1690602001909291905050506117fb565b6040518082815260200191505060405180910390f35b3480156107a757600080fd5b506107b0611844565b6040518082815260200191505060405180910390f35b3480156107d257600080fd5b506107db61184a565b6040518082815260200191505060405180910390f35b3480156107fd57600080fd5b50610806611850565b604051808273ffffffffffffffffffffffffffffffffffffffff1673ffffffffffffffffffffffffffffffffffffffff16815260200191505060405180910390f35b34801561085457600080fd5b5061085d611876565b6040518082815260200191505060405180910390f35b34801561087f57600080fd5b5061088861187c565b6040518080602001828103825283818151815260200191508051906020019080838360005b838110156108c85780820151818401526020810190506108ad565b50505050905090810190601f1680156108f55780820380516001836020036101000a031916815260200191505b509250505060405180910390f35b34801561090f57600080fd5b506109186118b5565b005b34801561092657600080fd5b5061092f611989565b604051808215151515815260200191505060405180910390f35b34801561095557600080fd5b5061095e611b83565b6040518082815260200191505060405180910390f35b34801561098057600080fd5b5061099f60048036038101908080359060200190929190505050611b89565b005b3480156109ad57600080fd5b506109ec600480360381019080803573ffffffffffffffffffffffffffffffffffffffff16906020019092919080359060200190929190505050611ba1565b604051808215151515815260200191505060405180910390f35b348015610a1257600080fd5b50610a1b611dc5565b6040518082815260200191505060405180910390f35b348015610a3d57600080fd5b50610a72600480360381019080803573ffffffffffffffffffffffffffffffffffffffff169060200190929190505050611dcb565b6040518082815260200191505060405180910390f35b348015610a9457600080fd5b50610ac9600480360381019080803573ffffffffffffffffffffffffffffffffffffffff169060200190929190505050611e3f565b6040518082815260200191505060405180910390f35b348015610aeb57600080fd5b50610af4611e8b565b6040518082815260200191505060405180910390f35b348015610b1657600080fd5b50610b55600480360381019080803573ffffffffffffffffffffffffffffffffffffffff16906020019092919080359060200190929190505050611e91565b604051808215151515815260200191505060405180910390f35b348015610b7b57600080fd5b50610bd0600480360381019080803573ffffffffffffffffffffffffffffffffffffffff169060200190929190803573ffffffffffffffffffffffffffffffffffffffff16906020019092919050505061208d565b6040518082815260200191505060405180910390f35b348015610bf257600080fd5b50610bfb612114565b604051808215151515815260200191505060405180910390f35b348015610c2157600080fd5b50610c2a61236e565b6040518082815260200191505060405180910390f35b348015610c4c57600080fd5b50610c81600480360381019080803573ffffffffffffffffffffffffffffffffffffffff169060200190929190505050612374565b005b60085481565b6040805190810160405280600581526020017f5343414c4500000000000000000000000000000000000000000000000000000081525081565b600081600260003373ffffffffffffffffffffffffffffffffffffffff1673ffffffffffffffffffffffffffffffffffffffff16815260200190815260200160002060008573ffffffffffffffffffffffffffffffffffffffff1673ffffffffffffffffffffffffffffffffffffffff168152602001908152602001600020819055508273ffffffffffffffffffffffffffffffffffffffff163373ffffffffffffffffffffffffffffffffffffffff167f8c5be1e5ebec7d5bd14f71427d1e84f3dd0314c0f7b2291e5b200ac8c7c3b925846040518082815260200191505060405180910390a36001905092915050565b600460009054906101000a900473ffffffffffffffffffffffffffffffffffffffff1681565b60005481565b60008073ffffffffffffffffffffffffffffffffffffffff168373ffffffffffffffffffffffffffffffffffffffff1614151515610e1d57600080fd5b600160008573ffffffffffffffffffffffffffffffffffffffff1673ffffffffffffffffffffffffffffffffffffffff168152602001908152602001600020548211151515610e6b57600080fd5b600260008573ffffffffffffffffffffffffffffffffffffffff1673ffffffffffffffffffffffffffffffffffffffff16815260200190815260200160002060003373ffffffffffffffffffffffffffffffffffffffff1673ffffffffffffffffffffffffffffffffffffffff168152602001908152602001600020548211151515610ef657600080fd5b610f4882600160008773ffffffffffffffffffffffffffffffffffffffff1673ffffffffffffffffffffffffffffffffffffffff168152602001908152602001600020546124cc90919063ffffffff16565b600160008673ffffffffffffffffffffffffffffffffffffffff1673ffffffffffffffffffffffffffffffffffffffff16815260200190815260200160002081905550610fdd82600160008673ffffffffffffffffffffffffffffffffffffffff1673ffffffffffffffffffffffffffffffffffffffff168152602001908152602001600020546124e590919063ffffffff16565b600160008573ffffffffffffffffffffffffffffffffffffffff1673ffffffffffffffffffffffffffffffffffffffff168152602001908152602001600020819055506110af82600260008773ffffffffffffffffffffffffffffffffffffffff1673ffffffffffffffffffffffffffffffffffffffff16815260200190815260200160002060003373ffffffffffffffffffffffffffffffffffffffff1673ffffffffffffffffffffffffffffffffffffffff168152602001908152602001600020546124cc90919063ffffffff16565b600260008673ffffffffffffffffffffffffffffffffffffffff1673ffffffffffffffffffffffffffffffffffffffff16815260200190815260200160002060003373ffffffffffffffffffffffffffffffffffffffff1673ffffffffffffffffffffffffffffffffffffffff168152602001908152602001600020819055508273ffffffffffffffffffffffffffffffffffffffff168473ffffffffffffffffffffffffffffffffffffffff167fddf252ad1be2c89b69c2b068fc378daa952ba7f163c4a11628f55a4df523b3ef846040518082815260200191505060405180910390a3600190509392505050565b6111a98282612501565b15156111b457600080fd5b5050565b601281565b60136020528060005260406000206000915090508060000154908060010154908060020154905083565b600a5481565b600b5481565b6111fd33826127cd565b50565b600360009054906101000a900473ffffffffffffffffffffffffffffffffffffffff1673ffffffffffffffffffffffffffffffffffffffff163373ffffffffffffffffffffffffffffffffffffffff1614151561125c57600080fd5b80600460006101000a81548173ffffffffffffffffffffffffffffffffffffffff021916908373ffffffffffffffffffffffffffffffffffffffff16021790555050565b6000806000600360009054906101000a900473ffffffffffffffffffffffffffffffffffffffff1673ffffffffffffffffffffffffffffffffffffffff163373ffffffffffffffffffffffffffffffffffffffff1614151561130157600080fd5b600d544211151561131157600080fd5b611326600d54426124cc90919063ffffffff16565b925060008311151561133457fe5b61134083600654612983565b915061134c33836129a0565b905080151561135a57600080fd5b42600d81905550505050565b600e5481565b6301e13380611386601554426124cc90919063ffffffff16565b1015151561139357600080fd5b61139b612b10565b565b600f5481565b600080600260003373ffffffffffffffffffffffffffffffffffffffff1673ffffffffffffffffffffffffffffffffffffffff16815260200190815260200160002060008573ffffffffffffffffffffffffffffffffffffffff1673ffffffffffffffffffffffffffffffffffffffff168152602001908152602001600020549050808311156114b4576000600260003373ffffffffffffffffffffffffffffffffffffffff1673ffffffffffffffffffffffffffffffffffffffff16815260200190815260200160002060008673ffffffffffffffffffffffffffffffffffffffff1673ffffffffffffffffffffffffffffffffffffffff16815260200190815260200160002081905550611548565b6114c783826124cc90919063ffffffff16565b600260003373ffffffffffffffffffffffffffffffffffffffff1673ffffffffffffffffffffffffffffffffffffffff16815260200190815260200160002060008673ffffffffffffffffffffffffffffffffffffffff1673ffffffffffffffffffffffffffffffffffffffff168152602001908152602001600020819055505b8373ffffffffffffffffffffffffffffffffffffffff163373ffffffffffffffffffffffffffffffffffffffff167f8c5be1e5ebec7d5bd14f71427d1e84f3dd0314c0f7b2291e5b200ac8c7c3b925600260003373ffffffffffffffffffffffffffffffffffffffff1673ffffffffffffffffffffffffffffffffffffffff16815260200190815260200160002060008873ffffffffffffffffffffffffffffffffffffffff1673ffffffffffffffffffffffffffffffffffffffff168152602001908152602001600020546040518082815260200191505060405180910390a3600191505092915050565b600080601360003373ffffffffffffffffffffffffffffffffffffffff1673ffffffffffffffffffffffffffffffffffffffff16815260200190815260200160002060000154141561168957600090506116a9565b6116a66116a160125484612b7790919063ffffffff16565b612b8d565b90505b919050565b60008060008073ffffffffffffffffffffffffffffffffffffffff16600460009054906101000a900473ffffffffffffffffffffffffffffffffffffffff1673ffffffffffffffffffffffffffffffffffffffff161415151561171057600080fd5b600e544211151561172057600080fd5b600073ffffffffffffffffffffffffffffffffffffffff16600460009054906101000a900473ffffffffffffffffffffffffffffffffffffffff1673ffffffffffffffffffffffffffffffffffffffff161415151561177e57600080fd5b611793600e54426124cc90919063ffffffff16565b92506000831115156117a157fe5b6117ad83600554612983565b91506117db600460009054906101000a900473ffffffffffffffffffffffffffffffffffffffff16836129a0565b90508015156117e957600080fd5b42600e81905550505050565b60155481565b6000600160008373ffffffffffffffffffffffffffffffffffffffff1673ffffffffffffffffffffffffffffffffffffffff168152602001908152602001600020549050919050565b60075481565b600c5481565b600360009054906101000a900473ffffffffffffffffffffffffffffffffffffffff1681565b60055481565b6040805190810160405280600581526020017f5343414c4500000000000000000000000000000000000000000000000000000081525081565b600360009054906101000a900473ffffffffffffffffffffffffffffffffffffffff1673ffffffffffffffffffffffffffffffffffffffff163373ffffffffffffffffffffffffffffffffffffffff1614151561191157600080fd5b600360009054906101000a900473ffffffffffffffffffffffffffffffffffffffff1673ffffffffffffffffffffffffffffffffffffffff166108fc3073ffffffffffffffffffffffffffffffffffffffff16319081150290604051600060405180830381858888f19350505050151561198757fe5b565b600080601360003373ffffffffffffffffffffffffffffffffffffffff1673ffffffffffffffffffffffffffffffffffffffff168152602001908152602001600020600201541415156119db57600080fd5b6000601360003373ffffffffffffffffffffffffffffffffffffffff1673ffffffffffffffffffffffffffffffffffffffff16815260200190815260200160002060000154111515611a2c57600080fd5b611a4160125442612b7790919063ffffffff16565b601360003373ffffffffffffffffffffffffffffffffffffffff1673ffffffffffffffffffffffffffffffffffffffff16815260200190815260200160002060020181905550611ade601360003373ffffffffffffffffffffffffffffffffffffffff1673ffffffffffffffffffffffffffffffffffffffff168152602001908152602001600020600001546010546124cc90919063ffffffff16565b601081905550611aec612e55565b3373ffffffffffffffffffffffffffffffffffffffff167f85082129d87b2fe11527cb1b3b7a520aeb5aa6913f88a3d8757fe40d1db02fdd601360003373ffffffffffffffffffffffffffffffffffffffff1673ffffffffffffffffffffffffffffffffffffffff168152602001908152602001600020600001546040518082815260200191505060405180910390a26001905090565b60065481565b611b933382612501565b1515611b9e57600080fd5b50565b60008073ffffffffffffffffffffffffffffffffffffffff168373ffffffffffffffffffffffffffffffffffffffff1614151515611bde57600080fd5b600160003373ffffffffffffffffffffffffffffffffffffffff1673ffffffffffffffffffffffffffffffffffffffff168152602001908152602001600020548211151515611c2c57600080fd5b611c7e82600160003373ffffffffffffffffffffffffffffffffffffffff1673ffffffffffffffffffffffffffffffffffffffff168152602001908152602001600020546124cc90919063ffffffff16565b600160003373ffffffffffffffffffffffffffffffffffffffff1673ffffffffffffffffffffffffffffffffffffffff16815260200190815260200160002081905550611d1382600160008673ffffffffffffffffffffffffffffffffffffffff1673ffffffffffffffffffffffffffffffffffffffff168152602001908152602001600020546124e590919063ffffffff16565b600160008573ffffffffffffffffffffffffffffffffffffffff1673ffffffffffffffffffffffffffffffffffffffff168152602001908152602001600020819055508273ffffffffffffffffffffffffffffffffffffffff163373ffffffffffffffffffffffffffffffffffffffff167fddf252ad1be2c89b69c2b068fc378daa952ba7f163c4a11628f55a4df523b3ef846040518082815260200191505060405180910390a36001905092915050565b600d5481565b6000611e3862015180611e2a600e601360008773ffffffffffffffffffffffffffffffffffffffff1673ffffffffffffffffffffffffffffffffffffffff168152602001908152602001600020600201546124e590919063ffffffff16565b612e8b90919063ffffffff16565b9050919050565b6000601360008373ffffffffffffffffffffffffffffffffffffffff1673ffffffffffffffffffffffffffffffffffffffff168152602001908152602001600020600001549050919050565b60095481565b6000611f2282600260003373ffffffffffffffffffffffffffffffffffffffff1673ffffffffffffffffffffffffffffffffffffffff16815260200190815260200160002060008673ffffffffffffffffffffffffffffffffffffffff1673ffffffffffffffffffffffffffffffffffffffff168152602001908152602001600020546124e590919063ffffffff16565b600260003373ffffffffffffffffffffffffffffffffffffffff1673ffffffffffffffffffffffffffffffffffffffff16815260200190815260200160002060008573ffffffffffffffffffffffffffffffffffffffff1673ffffffffffffffffffffffffffffffffffffffff168152602001908152602001600020819055508273ffffffffffffffffffffffffffffffffffffffff163373ffffffffffffffffffffffffffffffffffffffff167f8c5be1e5ebec7d5bd14f71427d1e84f3dd0314c0f7b2291e5b200ac8c7c3b925600260003373ffffffffffffffffffffffffffffffffffffffff1673ffffffffffffffffffffffffffffffffffffffff16815260200190815260200160002060008773ffffffffffffffffffffffffffffffffffffffff1673ffffffffffffffffffffffffffffffffffffffff168152602001908152602001600020546040518082815260200191505060405180910390a36001905092915050565b6000600260008473ffffffffffffffffffffffffffffffffffffffff1673ffffffffffffffffffffffffffffffffffffffff16815260200190815260200160002060008373ffffffffffffffffffffffffffffffffffffffff1673ffffffffffffffffffffffffffffffffffffffff16815260200190815260200160002054905092915050565b6000806000600e612184601360003373ffffffffffffffffffffffffffffffffffffffff1673ffffffffffffffffffffffffffffffffffffffff1681526020019081526020016000206002015461217660125442612b7790919063ffffffff16565b6124cc90919063ffffffff16565b1015151561219157600080fd5b601360003373ffffffffffffffffffffffffffffffffffffffff1673ffffffffffffffffffffffffffffffffffffffff168152602001908152602001600020600001549150612221601360003373ffffffffffffffffffffffffffffffffffffffff1673ffffffffffffffffffffffffffffffffffffffff16815260200190815260200160002060020154612b8d565b90506000601360003373ffffffffffffffffffffffffffffffffffffffff1673ffffffffffffffffffffffffffffffffffffffff168152602001908152602001600020600001819055506000601360003373ffffffffffffffffffffffffffffffffffffffff1673ffffffffffffffffffffffffffffffffffffffff168152602001908152602001600020600101819055506000601360003373ffffffffffffffffffffffffffffffffffffffff1673ffffffffffffffffffffffffffffffffffffffff1681526020019081526020016000206002018190555061230482612ec3565b61230e33826129a0565b503373ffffffffffffffffffffffffffffffffffffffff167f15bc237520b6d2aec89530f79038b72606e52b24f8d9608be55f9a674861562e8383604051808381526020018281526020019250505060405180910390a260019250505090565b60105481565b600360009054906101000a900473ffffffffffffffffffffffffffffffffffffffff1673ffffffffffffffffffffffffffffffffffffffff163373ffffffffffffffffffffffffffffffffffffffff161415156123d057600080fd5b600073ffffffffffffffffffffffffffffffffffffffff168173ffffffffffffffffffffffffffffffffffffffff161415151561240c57600080fd5b8073ffffffffffffffffffffffffffffffffffffffff16600360009054906101000a900473ffffffffffffffffffffffffffffffffffffffff1673ffffffffffffffffffffffffffffffffffffffff167f8be0079c531659141344cd1fd0a4f28419497f9722a3daafe3b4186f6b6457e060405160405180910390a380600360006101000a81548173ffffffffffffffffffffffffffffffffffffffff021916908373ffffffffffffffffffffffffffffffffffffffff16021790555050565b60008282111515156124da57fe5b818303905092915050565b600081830190508281101515156124f857fe5b80905092915050565b6000806000600160003373ffffffffffffffffffffffffffffffffffffffff1673ffffffffffffffffffffffffffffffffffffffff16815260200190815260200160002054841115151561255457600080fd5b6000601360008773ffffffffffffffffffffffffffffffffffffffff1673ffffffffffffffffffffffffffffffffffffffff168152602001908152602001600020600201541415156125a557600080fd5b6125af3085611ba1565b506125c560125442612b7790919063ffffffff16565b915061261c84601360008873ffffffffffffffffffffffffffffffffffffffff1673ffffffffffffffffffffffffffffffffffffffff168152602001908152602001600020600001546124e590919063ffffffff16565b90506000601360008773ffffffffffffffffffffffffffffffffffffffff1673ffffffffffffffffffffffffffffffffffffffff1681526020019081526020016000206000015414156126b15781601360008773ffffffffffffffffffffffffffffffffffffffff1673ffffffffffffffffffffffffffffffffffffffff168152602001908152602001600020600101819055505b80601360008773ffffffffffffffffffffffffffffffffffffffff1673ffffffffffffffffffffffffffffffffffffffff1681526020019081526020016000206000018190555080601360008773ffffffffffffffffffffffffffffffffffffffff1673ffffffffffffffffffffffffffffffffffffffff168152602001908152602001600020600301600084815260200190815260200160002081905550612765846010546124e590919063ffffffff16565b601081905550612773612e55565b8473ffffffffffffffffffffffffffffffffffffffff167febedb8b3c678666e7f36970bc8f57abf6d8fa2e828c0da91ea5b75bf68ed101a856040518082815260200191505060405180910390a260019250505092915050565b600160008373ffffffffffffffffffffffffffffffffffffffff1673ffffffffffffffffffffffffffffffffffffffff16815260200190815260200160002054811115151561281b57600080fd5b61286d81600160008573ffffffffffffffffffffffffffffffffffffffff1673ffffffffffffffffffffffffffffffffffffffff168152602001908152602001600020546124cc90919063ffffffff16565b600160008473ffffffffffffffffffffffffffffffffffffffff1673ffffffffffffffffffffffffffffffffffffffff168152602001908152602001600020819055506128c5816000546124cc90919063ffffffff16565b6000819055508173ffffffffffffffffffffffffffffffffffffffff167fcc16f5dbb4873280815c1ee09dbd06736cffcc184412cf7a71a0fdb75d397ca5826040518082815260200191505060405180910390a2600073ffffffffffffffffffffffffffffffffffffffff168273ffffffffffffffffffffffffffffffffffffffff167fddf252ad1be2c89b69c2b068fc378daa952ba7f163c4a11628f55a4df523b3ef836040518082815260200191505060405180910390a35050565b60006129988284612e8b90919063ffffffff16565b905092915050565b60006129b7826000546124e590919063ffffffff16565b600081905550612a0f82600160008673ffffffffffffffffffffffffffffffffffffffff1673ffffffffffffffffffffffffffffffffffffffff168152602001908152602001600020546124e590919063ffffffff16565b600160008573ffffffffffffffffffffffffffffffffffffffff1673ffffffffffffffffffffffffffffffffffffffff168152602001908152602001600020819055508273ffffffffffffffffffffffffffffffffffffffff167f0f6798a560793a54c3bcfe86a93cde1e73087d944c0ea20544137d4121396885836040518082815260200191505060405180910390a28273ffffffffffffffffffffffffffffffffffffffff16600073ffffffffffffffffffffffffffffffffffffffff167fddf252ad1be2c89b69c2b068fc378daa952ba7f163c4a11628f55a4df523b3ef846040518082815260200191505060405180910390a36001905092915050565b4260158190555060646014541115612b4457612b3961012c6014546124cc90919063ffffffff16565b601481905550612b6d565b600a6014541115612b6c57612b6560056014546124cc90919063ffffffff16565b6014819055505b5b612b756130a3565b565b60008183811515612b8457fe5b04905092915050565b6000806000806000806000806000806000601360003373ffffffffffffffffffffffffffffffffffffffff1673ffffffffffffffffffffffffffffffffffffffff168152602001908152602001600020600101549950612bf68a8d6124cc90919063ffffffff16565b985060009750600096506000891415612c125760009a50612e46565b61016d89101515612c3a57612c3261016d8b6124e590919063ffffffff16565b9b5061016d98505b8993505b8b841015612de057601360003373ffffffffffffffffffffffffffffffffffffffff1673ffffffffffffffffffffffffffffffffffffffff1681526020019081526020016000206003016000858152602001908152602001600020549250600083141515612d405760006011600086815260200190815260200160002054141515612d1457612cf7612ce8846011600088815260200190815260200160002054601260ff16613213565b896124e590919063ffffffff16565b975060116000858152602001908152602001600020549550612d38565b612d35612d268488601260ff16613213565b896124e590919063ffffffff16565b97505b829450612dd3565b60006011600086815260200190815260200160002054141515612dae57612d91612d82866011600088815260200190815260200160002054601260ff16613213565b896124e590919063ffffffff16565b975060116000858152602001908152602001600020549550612dd2565b612dcf612dc08688601260ff16613213565b896124e590919063ffffffff16565b97505b5b8380600101945050612c3e565b612dec888a6000613213565b9150612e0382600f54612e8b90919063ffffffff16565b9050612e20670de0b6b3a764000082612b7790919063ffffffff16565b9050612e40612e3a6012548b612e8b90919063ffffffff16565b82612983565b9650869a505b50505050505050505050919050565b6000612e6c60125442612b7790919063ffffffff16565b9050601054601160008381526020019081526020016000208190555050565b600080831415612e9e5760009050612ebd565b8183029050818382811515612eaf57fe5b04141515612eb957fe5b8090505b92915050565b600160003073ffffffffffffffffffffffffffffffffffffffff1673ffffffffffffffffffffffffffffffffffffffff168152602001908152602001600020548111151515612f1157600080fd5b612f6381600160003373ffffffffffffffffffffffffffffffffffffffff1673ffffffffffffffffffffffffffffffffffffffff168152602001908152602001600020546124e590919063ffffffff16565b600160003373ffffffffffffffffffffffffffffffffffffffff1673ffffffffffffffffffffffffffffffffffffffff16815260200190815260200160002081905550612ff881600160003073ffffffffffffffffffffffffffffffffffffffff1673ffffffffffffffffffffffffffffffffffffffff168152602001908152602001600020546124cc90919063ffffffff16565b600160003073ffffffffffffffffffffffffffffffffffffffff1673ffffffffffffffffffffffffffffffffffffffff168152602001908152602001600020819055503373ffffffffffffffffffffffffffffffffffffffff163073ffffffffffffffffffffffffffffffffffffffff167fddf252ad1be2c89b69c2b068fc378daa952ba7f163c4a11628f55a4df523b3ef836040518082815260200191505060405180910390a350565b6130f560646130e7600a546130d96103e86130cb601454600054612e8b90919063ffffffff16565b612b7790919063ffffffff16565b612e8b90919063ffffffff16565b612b7790919063ffffffff16565b60078190555061314d606461313f600b546131316103e8613123601454600054612e8b90919063ffffffff16565b612b7790919063ffffffff16565b612e8b90919063ffffffff16565b612b7790919063ffffffff16565b6009819055506131a56064613197600c546131896103e861317b601454600054612e8b90919063ffffffff16565b612b7790919063ffffffff16565b612e8b90919063ffffffff16565b612b7790919063ffffffff16565b6008819055506131c76007546a1a1601fc4ea7109e000000601260ff16613213565b6005819055506131e96009546a1a1601fc4ea7109e000000601260ff16613213565b60068190555061320b6008546a1a1601fc4ea7109e000000601260ff16613213565b600f81905550565b60008061322f60018401600a0a86612e8b90919063ffffffff16565b9450600a60056132488688612b7790919063ffffffff16565b0181151561325257fe5b0490508091505093925050505600a165627a7a723058203e66a036f043ff1de88eed502fe696cb9323a65ac53ebb17c12b632c8eaa02d10029",
  "source": "pragma solidity ^0.4.24;\n\n/**************************************************************\n * @title Scale Token Contract\n * @file Scale.sol\n * @author Jared Downing and Kane Thomas of the Scale Network\n * @version 1.0\n *\n * @section DESCRIPTION\n *\n * This is an ERC20-based token with staking and inflationary functionality.\n *\n *************************************************************/\n\n//////////////////////////////////\n/// OpenZeppelin library imports\n//////////////////////////////////\n\nimport \"../openzeppelin-solidity/contracts/token/ERC20/MintableToken.sol\";\nimport \"../openzeppelin-solidity/contracts/ownership/HasNoEther.sol\";\nimport \"../openzeppelin-solidity/contracts/token/ERC20/BurnableToken.sol\";\n\n//////////////////////////////////\n/// Scale Token\n//////////////////////////////////\n\ncontract Scale is MintableToken, HasNoEther, BurnableToken {\n\n    // Libraries\n    using SafeMath for uint;\n\n    //////////////////////\n    // Token Information\n    //////////////////////\n    string public constant name = \"SCALE\";\n    string public constant symbol = \"SCALE\";\n    uint8 public constant  decimals = 18;\n\n    ///////////////////////////////////////////////////////////\n    // Variables For Staking and Pooling\n    ///////////////////////////////////////////////////////////\n\n    // -- Pool Minting Rates and Percentages -- //\n    // Pool for Scale distribution to rewards pool\n    // Set to 0 to prohibit issuing to the pool before it is assigned\n    address public pool = address(0);\n\n    // Pool and Owner minted tokens per second\n    uint public poolMintRate;\n    uint public ownerMintRate;\n\n    // Amount of Scale to be staked to the pool, staking, and owner, as calculated through their percentages\n    uint public poolMintAmount;\n    uint public stakingMintAmount;\n    uint public ownerMintAmount;\n\n    // Scale distribution percentages\n    uint public poolPercentage = 70;\n    uint public ownerPercentage = 5;\n    uint public stakingPercentage = 25;\n\n    // Last time minted for owner and pool\n    uint public ownerTimeLastMinted;\n    uint public poolTimeLastMinted;\n\n    // -- Staking -- //\n    // Minted tokens per second\n    uint public stakingMintRate;\n\n    // Total Scale currently staked\n    uint public totalScaleStaked;\n\n    // Mapping of the timestamp => totalStaking that is created each time an address stakes or unstakes\n    mapping (uint => uint) totalStakingHistory;\n\n    // Variable for staking accuracy. Set to 86400 for seconds in a day so that staking gains are based on the day an account begins staking.\n    uint timingVariable = 86400;\n\n    // Address staking information\n    struct AddressStakeData {\n        uint stakeBalance;\n        uint initialStakeTime;\n        uint unstakeTime;\n        mapping (uint => uint) stakePerDay;\n    }\n\n    // Track all tokens staked\n    mapping (address => AddressStakeData) public stakeBalances;\n\n    // -- Inflation -- //\n    // Inflation rate begins at 100% per year and decreases by 30% per year until it reaches 10% where it decreases by 0.5% per year\n    uint256 inflationRate = 1000;\n\n    // Used to manage when to inflate. Allowed to inflate once per year until the rate reaches 1%.\n    uint256 public lastInflationUpdate;\n\n    // -- Events -- //\n    // Fired when tokens are staked\n    event Stake(address indexed staker, uint256 value);\n    // Fired when tokens are unstaked\n    event Unstake(address indexed unstaker, uint256 stakedAmount);\n    // Fired when a user claims their stake\n    event ClaimStake(address indexed claimer, uint256 stakedAmount, uint256 stakingGains);\n\n    //////////////////////////////////////////////////\n    /// Scale Token Functionality\n    //////////////////////////////////////////////////\n\n    /// @dev Scale token constructor\n    constructor() public {\n        // Assign owner\n        owner = msg.sender;\n\n        // Assign initial owner supply\n        uint _initOwnerSupply = 10000000 ether;\n        // Mint given to owner only one-time\n        bool _success = mint(msg.sender, _initOwnerSupply);\n        // Require minting success\n        require(_success);\n\n        // Set pool and owner last minted to ensure extra coins are not minted by either\n        ownerTimeLastMinted = now;\n        poolTimeLastMinted = now;\n\n        // Set minting amount for pool, staking, and owner over the course of 1 year\n        poolMintAmount = _initOwnerSupply.mul(poolPercentage).div(100);\n        ownerMintAmount = _initOwnerSupply.mul(ownerPercentage).div(100);\n        stakingMintAmount = _initOwnerSupply.mul(stakingPercentage).div(100);\n\n        // One year in seconds\n        uint _oneYearInSeconds = 31536000 ether;\n\n        // Set the rate of coins minted per second for the pool, owner, and global staking\n        poolMintRate = calculateFraction(poolMintAmount, _oneYearInSeconds, decimals);\n        ownerMintRate = calculateFraction(ownerMintAmount, _oneYearInSeconds, decimals);\n        stakingMintRate = calculateFraction(stakingMintAmount, _oneYearInSeconds, decimals);\n\n        // Set the last time inflation was updated to now so that the next time it can be updated is 1 year from now\n        lastInflationUpdate = now;\n    }\n\n    /////////////\n    // Inflation\n    /////////////\n\n    /// @dev the inflation rate begins at 100% and decreases by 30% every year until it reaches 10%\n    /// at 10% the rate begins to decrease by 0.5% until it reaches 1%\n    function adjustInflationRate() private {\n      // Make sure adjustInflationRate cannot be called for at least another year\n      lastInflationUpdate = now;\n\n      // Decrease inflation rate by 30% each year\n      if (inflationRate > 100) {\n        inflationRate = inflationRate.sub(300);\n      }\n      // Inflation rate reaches 10%. Decrease inflation rate by 0.5% from here on out until it reaches 1%.\n      else if (inflationRate > 10) {\n        inflationRate = inflationRate.sub(5);\n      }\n\n      adjustMintRates();\n    }\n\n    /// @dev adjusts the mint rate when the yearly inflation update is called\n    function adjustMintRates() internal {\n\n      // Calculate new mint amount of Scale that should be created per year.\n      poolMintAmount = totalSupply.mul(inflationRate).div(1000).mul(poolPercentage).div(100);\n      ownerMintAmount = totalSupply.mul(inflationRate).div(1000).mul(ownerPercentage).div(100);\n      stakingMintAmount = totalSupply.mul(inflationRate).div(1000).mul(stakingPercentage).div(100);\n\n      // Adjust Scale created per-second for each rate\n      poolMintRate = calculateFraction(poolMintAmount, 31536000 ether, decimals);\n      ownerMintRate = calculateFraction(ownerMintAmount, 31536000 ether, decimals);\n      stakingMintRate = calculateFraction(stakingMintAmount, 31536000 ether, decimals);\n    }\n\n    /// @dev anyone can call this function to update the inflation rate yearly\n    function updateInflationRate() public {\n\n      // Require 1 year to have passed for every inflation adjustment\n      require(now.sub(lastInflationUpdate) >= 31536000);\n\n      adjustInflationRate();\n    }\n\n    /////////////\n    // Staking\n    /////////////\n\n    /// @dev staking function which allows users to stake an amount of tokens to gain interest for up to 1 year\n    function stake(uint _stakeAmount) external {\n        // Require that tokens are staked successfully\n        require(stakeScale(msg.sender, _stakeAmount));\n    }\n\n   /// @dev staking function which allows users to stake an amount of tokens for another user\n   function stakeFor(address _user, uint _amount) external {\n        // Stake for the user\n        require(stakeScale(_user, _amount));\n   }\n\n   /// @dev Transfer tokens from the contract to the user when unstaking\n   /// @param _value uint256 the amount of tokens to be transferred\n   function transferFromContract(uint _value) internal {\n\n     // Sanity check to make sure we are not transferring more than the contract has\n     require(_value <= balances[address(this)]);\n\n     // Add to the msg.sender balance\n     balances[msg.sender] = balances[msg.sender].add(_value);\n     \n     // Subtract from the contract's balance\n     balances[address(this)] = balances[address(this)].sub(_value);\n\n     // Fire an event for transfer\n     emit Transfer(address(this), msg.sender, _value);\n   }\n\n   /// @dev stake function reduces the user's total available balance and adds it to their staking balance\n   /// @param _value how many tokens a user wants to stake\n   function stakeScale(address _user, uint256 _value) private returns (bool success) {\n\n       // You can only stake / stakeFor as many tokens as you have\n       require(_value <= balances[msg.sender]);\n\n       // Require the user is not in power down period\n       require(stakeBalances[_user].unstakeTime == 0);\n\n       // Transfer tokens to contract address\n       transfer(address(this), _value);\n\n       // Now as a day\n       uint _nowAsDay = now.div(timingVariable);\n\n       // Adjust the new staking balance\n       uint _newStakeBalance = stakeBalances[_user].stakeBalance.add(_value);\n\n       // If this is the initial stake time, save\n       if (stakeBalances[_user].stakeBalance == 0) {\n         // Save the time that the stake started\n         stakeBalances[_user].initialStakeTime = _nowAsDay;\n       }\n\n       // Add stake amount to staked balance\n       stakeBalances[_user].stakeBalance = _newStakeBalance;\n\n       // Assign the total amount staked at this day\n       stakeBalances[_user].stakePerDay[_nowAsDay] = _newStakeBalance;\n\n       // Increment the total staked tokens\n       totalScaleStaked = totalScaleStaked.add(_value);\n\n       // Set the new staking history\n       setTotalStakingHistory();\n\n       // Fire an event for newly staked tokens\n       emit Stake(_user, _value);\n\n       return true;\n   }\n\n    /// @dev deposit a user's initial stake plus earnings if the user unstaked at least 14 days ago\n    function claimStake() external returns (bool) {\n\n      // Require that at least 14 days have passed (days)\n      require(now.div(timingVariable).sub(stakeBalances[msg.sender].unstakeTime) >= 14);\n\n      // Get the user's stake balance \n      uint _userStakeBalance = stakeBalances[msg.sender].stakeBalance;\n\n      // Calculate tokens to mint using unstakeTime, rewards are not received during power-down period\n      uint _tokensToMint = calculateStakeGains(stakeBalances[msg.sender].unstakeTime);\n\n      // Clear out stored data from mapping\n      stakeBalances[msg.sender].stakeBalance = 0;\n      stakeBalances[msg.sender].initialStakeTime = 0;\n      stakeBalances[msg.sender].unstakeTime = 0;\n\n      // Return the stake balance to the staker\n      transferFromContract(_userStakeBalance);\n\n      // Mint the new tokens to the sender\n      mint(msg.sender, _tokensToMint);\n\n      // Scale unstaked event\n      emit ClaimStake(msg.sender, _userStakeBalance, _tokensToMint);\n\n      return true;\n    }\n\n    /// @dev allows users to start the reclaim process for staked tokens and stake rewards\n    /// @return bool on success\n    function initUnstake() external returns (bool) {\n\n        // Require that the user has not already started the unstaked process\n        require(stakeBalances[msg.sender].unstakeTime == 0);\n\n        // Require that there was some amount staked\n        require(stakeBalances[msg.sender].stakeBalance > 0);\n\n        // Log time that user started unstaking\n        stakeBalances[msg.sender].unstakeTime = now.div(timingVariable);\n\n        // Subtract stake balance from totalScaleStaked\n        totalScaleStaked = totalScaleStaked.sub(stakeBalances[msg.sender].stakeBalance);\n\n        // Set this every time someone adjusts the totalScaleStaked amount\n        setTotalStakingHistory();\n\n        // Scale unstaked event\n        emit Unstake(msg.sender, stakeBalances[msg.sender].stakeBalance);\n\n        return true;\n    }\n\n    /// @dev function to let the user know how much time they have until they can claim their tokens from unstaking\n    /// @param _user to check the time until claimable of\n    /// @return uint time in seconds until they may claim\n    function timeUntilClaimAvaliable(address _user) view external returns (uint) {\n      return stakeBalances[_user].unstakeTime.add(14).mul(86400);\n    }\n\n    /// @dev function to check the staking balance of a user\n    /// @param _user to check the balance of\n    /// @return uint of the stake balance\n    function stakeBalanceOf(address _user) view external returns (uint) {\n      return stakeBalances[_user].stakeBalance;\n    }\n\n    /// @dev returns how much Scale a user has earned so far\n    /// @param _now is passed in to allow for a gas-free analysis\n    /// @return staking gains based on the amount of time passed since staking began\n    function getStakingGains(uint _now) view public returns (uint) {\n        if (stakeBalances[msg.sender].stakeBalance == 0) {\n          return 0;\n        }\n        return calculateStakeGains(_now.div(timingVariable));\n    }\n\n    /// @dev Calculates staking gains \n    /// @param _unstakeTime when the user stopped staking.\n    /// @return uint for total coins to be minted\n    function calculateStakeGains(uint _unstakeTime) view private returns (uint mintTotal)  {\n\n      uint _initialStakeTimeInVariable = stakeBalances[msg.sender].initialStakeTime; // When the user started staking as a unique day in unix time\n      uint _timePassedSinceStakeInVariable = _unstakeTime.sub(_initialStakeTimeInVariable); // How much time has passed, in days, since the user started staking.\n      uint _stakePercentages = 0; // Keeps an additive track of the user's staking percentages over time\n      uint _tokensToMint = 0; // How many new Scale tokens to create\n      uint _lastDayStakeWasUpdated;  // Last day the totalScaleStaked was updated\n      uint _lastStakeDay; // Last day that the user staked\n\n      // If user staked and init unstaked on the same day, gains are 0\n      if (_timePassedSinceStakeInVariable == 0) {\n        return 0;\n      }\n      // If user has been staking longer than 365 days, staked days after 365 days do not earn interest \n      else if (_timePassedSinceStakeInVariable >= 365) {\n       _unstakeTime = _initialStakeTimeInVariable.add(365);\n       _timePassedSinceStakeInVariable = 365;\n      }\n      // Average this msg.sender's relative percentage ownership of totalScaleStaked throughout each day since they started staking\n      for (uint i = _initialStakeTimeInVariable; i < _unstakeTime; i++) {\n\n        // Total amount user has staked on i day\n        uint _stakeForDay = stakeBalances[msg.sender].stakePerDay[i];\n\n        // If this was a day that the user staked or added stake\n        if (_stakeForDay != 0) {\n\n            // If the day exists add it to the percentages\n            if (totalStakingHistory[i] != 0) {\n\n                // If the day does exist add it to the number to be later averaged as a total average percentage of total staking\n                _stakePercentages = _stakePercentages.add(calculateFraction(_stakeForDay, totalStakingHistory[i], decimals));\n\n                // Set the last day someone staked\n                _lastDayStakeWasUpdated = totalStakingHistory[i];\n            }\n            else {\n                // Use the last day found in the totalStakingHistory mapping\n                _stakePercentages = _stakePercentages.add(calculateFraction(_stakeForDay, _lastDayStakeWasUpdated, decimals));\n            }\n\n            _lastStakeDay = _stakeForDay;\n        }\n        else {\n\n            // If the day exists add it to the percentages\n            if (totalStakingHistory[i] != 0) {\n\n                // If the day does exist add it to the number to be later averaged as a total average percentage of total staking\n                _stakePercentages = _stakePercentages.add(calculateFraction(_lastStakeDay, totalStakingHistory[i], decimals));\n\n                // Set the last day someone staked\n                _lastDayStakeWasUpdated = totalStakingHistory[i];\n            }\n            else {\n                // Use the last day found in the totalStakingHistory mapping\n                _stakePercentages = _stakePercentages.add(calculateFraction(_lastStakeDay, _lastDayStakeWasUpdated, decimals));\n            }\n        }\n      }\n        // Get the account's average percentage staked of the total stake over the course of all days they have been staking\n        uint _stakePercentageAverage = calculateFraction(_stakePercentages, _timePassedSinceStakeInVariable, 0);\n\n        // Calculate this account's mint rate per second while staking\n        uint _finalMintRate = stakingMintRate.mul(_stakePercentageAverage);\n\n        // Account for 18 decimals when calculating the amount of tokens to mint\n        _finalMintRate = _finalMintRate.div(1 ether);\n\n        // Calculate total tokens to be minted. Multiply by timingVariable to convert back to seconds.\n        _tokensToMint = calculateMintTotal(_timePassedSinceStakeInVariable.mul(timingVariable), _finalMintRate);\n\n        return  _tokensToMint;\n    }\n\n    /// @dev set the new totalStakingHistory mapping to the current timestamp and totalScaleStaked\n    function setTotalStakingHistory() private {\n\n      // Get now in terms of the variable staking accuracy (days in Scale's case)\n      uint _nowAsTimingVariable = now.div(timingVariable);\n\n      // Set the totalStakingHistory as a timestamp of the totalScaleStaked today\n      totalStakingHistory[_nowAsTimingVariable] = totalScaleStaked;\n    }\n\n    /////////////\n    // Scale Owner Claiming\n    /////////////\n\n    /// @dev allows contract owner to claim their allocated mint\n    function ownerClaim() external onlyOwner {\n\n        require(now > ownerTimeLastMinted);\n\n        uint _timePassedSinceLastMint; // The amount of time passed since the owner claimed in seconds\n        uint _tokenMintCount; // The amount of new tokens to mint\n        bool _mintingSuccess; // The success of minting the new Scale tokens\n\n        // Calculate the number of seconds that have passed since the owner last took a claim\n        _timePassedSinceLastMint = now.sub(ownerTimeLastMinted);\n\n        assert(_timePassedSinceLastMint > 0);\n\n        // Determine the token mint amount, determined from the number of seconds passed and the ownerMintRate\n        _tokenMintCount = calculateMintTotal(_timePassedSinceLastMint, ownerMintRate);\n\n        // Mint the owner's tokens; this also increases totalSupply\n        _mintingSuccess = mint(msg.sender, _tokenMintCount);\n\n        require(_mintingSuccess);\n\n        // New minting was a success. Set last time minted to current block.timestamp (now)\n        ownerTimeLastMinted = now;\n    }\n\n    ////////////////////////////////\n    // Scale Pool Distribution\n    ////////////////////////////////\n\n    // @dev anyone can call this function that mints Scale to the pool dedicated to Scale distribution to rewards pool\n    function poolIssue() public {\n\n        // Do not allow tokens to be minted to the pool until the pool is set\n        require(pool != address(0));\n\n        // Make sure time has passed since last minted to pool\n        require(now > poolTimeLastMinted);\n        require(pool != address(0));\n\n        uint _timePassedSinceLastMint; // The amount of time passed since the pool claimed in seconds\n        uint _tokenMintCount; // The amount of new tokens to mint\n        bool _mintingSuccess; // The success of minting the new Scale tokens\n\n        // Calculate the number of seconds that have passed since the owner last took a claim\n        _timePassedSinceLastMint = now.sub(poolTimeLastMinted);\n\n        assert(_timePassedSinceLastMint > 0);\n\n        // Determine the token mint amount, determined from the number of seconds passed and the ownerMintRate\n        _tokenMintCount = calculateMintTotal(_timePassedSinceLastMint, poolMintRate);\n\n        // Mint the owner's tokens; this also increases totalSupply\n        _mintingSuccess = mint(pool, _tokenMintCount);\n\n        require(_mintingSuccess);\n\n        // New minting was a success! Set last time minted to current block.timestamp (now)\n        poolTimeLastMinted = now;\n    }\n\n    /// @dev sets the address for the rewards pool\n    /// @param _newAddress pool Address\n    function setPool(address _newAddress) public onlyOwner {\n        pool = _newAddress;\n    }\n\n    ////////////////////////////////\n    // Helper Functions\n    ////////////////////////////////\n\n    /// @dev calculateFraction allows us to better handle the Solidity ugliness of not having decimals as a native type\n    /// @param _numerator is the top part of the fraction we are calculating\n    /// @param _denominator is the bottom part of the fraction we are calculating\n    /// @param _precision tells the function how many significant digits to calculate out to\n    /// @return quotient returns the result of our fraction calculation\n    function calculateFraction(uint _numerator, uint _denominator, uint _precision) pure private returns(uint quotient) {\n        // Take passed value and expand it to the required precision\n        _numerator = _numerator.mul(10 ** (_precision + 1));\n        // Handle last-digit rounding\n        uint _quotient = ((_numerator.div(_denominator)) + 5) / 10;\n        return (_quotient);\n    }\n\n    /// @dev Determines the amount of Scale to create based on the number of seconds that have passed\n    /// @param _timeInSeconds is the time passed in seconds to mint for\n    /// @return uint with the calculated number of new tokens to mint\n    function calculateMintTotal(uint _timeInSeconds, uint _mintRate) pure private returns(uint mintAmount) {\n        // Calculates the amount of tokens to mint based upon the number of seconds passed\n        return(_timeInSeconds.mul(_mintRate));\n    }\n}\n",
  "sourcePath": "/Users/kanethomas/dev-projects/scale-token-official/contracts/Scale.sol",
  "compiler": {
    "name": "solc",
    "version": "0.4.24+commit.e67f0147.Emscripten.clang"
  },
  "schemaVersion": "2.0.1",
  "updatedAt": "2018-11-04T01:57:31.146Z"
}